:060000000200430201E2D0
:03000B000201F7F8
:0100130032BA
:01001B0032B2
:030023000203894C
:03002B0002023A94
:01003300329A
:03003B000202308E
:10009C009007AEE4F09007C7E4F09007CFF0A3F020
:1000AC00A3F0A3F09007D3F0A3F0A3F0A3F0900774
:1000BC00D7F0A3F0A3F0A3F09007DBF0A3F0A3F02C
:1000CC00A3F0900814E4F090081CF0A3F0A3F0A3A4
:1000DC00F0900820F0A3F0A3F0A3F0900824F0A374
:0F00EC00F0A3F0A3F0900828F0A3F0A3F0A3F086
:0301060002003EB6
:03003E00020E3E71
:1001090022AF83E5829007A4F0EFA3F09007A2E065
:10011900FFFD3395E0FE9007A4E0FBA3E0FCC3EBF1
:100129009DEC64808EF063F08095F050038F8222FD
:100139009007A3E0FFFD3395E0FEC3ED9BEE6480DD
:100149008CF063F08095F050038F82228B8222AF6E
:1001590082AE83ADF0FC9007AAEFF0EEA3F0EDA319
:10016900F0ECA3F09007A6E0FEA3E0FF8E02EFFB00
:100179003395E0FCFD9007AAE0F510A3E0F511A383
:10018900E0F512A3E0F513C3E5109AE5119BE5121A
:100199009CE51364808DF063F08095F050058E82A4
:1001A9008F83229007A8E0FEA3E0FF8E02EFFB33C6
:1001B90095E0FCFDC3EA9510EB9511EC9512ED6401
:1001C900808513F063F08095F050058E828F83222D
:1001D900AE10AF118E828F8322C0E0C082C083909F
:1001E900079D740455B0F0D083D082D0E032C0E0CE
:1001F900C082C083C007C006C0D075D0009007AECA
:10020900E02401F0E0FF9007A1E0FEC3EF9E400A61
:100219009007AEE4F090079F04F0D0D0D006D00745
:10022900D083D082D0E03243A91043C04053AAFB07
:1002390032C0E0C082C083C007C006C0D075D000FC
:10024900C2CFE59030E61990079EE06013C2CA75E7
:10025900CBFE75CA7085CBCD85CACCD2CA02037CC8
:10026900900706E07005C2CA02037C90079E7401DC
:10027900F0900705E02405F582E43406F583E0FFF4
:10028900900705E02401FEF0BEFF05900705E4F0A4
:10029900900706E014F053907F000000EF30E60568
:1002A90043902080035390DF0000004390800000BA
:1002B9000053907F000000EF30E505439020800354
:1002C9005390DF00000043908000000053907F00AE
:1002D9000000EF30E40543902080035390DF0000D5
:1002E9000043908000000053907F000000EF30E34E
:1002F9000543902080035390DF0000004390800065
:10030900000053907F000000EF30E2054390208009
:10031900035390DF00000043908000000053907F5A
:10032900000000EF30E10543902080035390DF0087
:10033900000043908000000053907F000000EF30E0
:10034900E00543902080035390DF00000043908034
:1003590000000053907F5390DF900706E07004C2BD
:10036900CA8010C2CA75CBFF75CA9C85CBCD85CA18
:10037900CCD2CAD0D0D006D007D083D082D0E03238
:10038900C0E0C082C083C007C006C0D075D00010CD
:1003990099028029900787E004547FFF900788E03D
:1003A900FEEFB506028016900787E0FE2407F58266
:1003B900E43407F583E0F599900787EFF010980288
:1003C900802990079BE0FFBF1000501F90079AE01B
:1003D9002489F582E43407F583E599F090079AE0DA
:1003E900FF04540FF090079BE004F0D0D0D006D062
:1003F90007D083D082D0E032AF83E5829007AFF097
:10040900EFA3F010990280FB9007AFE0FEA3E0FF95
:100419008E998E828F832210980280FBAE997F007D
:100429008E828F83222253C0BF43AA0422A2AFE443
:1004390033FFC2AF900704E4F0900705F090070678
:10044900F090079EE07026439020900001C00712AB
:1004590015E7D0075390DF900600E0FE900603E011
:100469009007B2F08E82C0071204EAD0079000010B
:10047900C0071215E7D00753C07FEF24FF92AF9052
:10048900079EE060FA22E5829007B1F0900706E046
:10049900FFBFFF0280F6A2AFE433FFC2AF900704AB
:1004A900E02405FEE43406FD9007B1E08E828D83D9
:1004B900F0900706E0FE04F0EE7010C2CA75CBFF9B
:1004C90075CA9C85CBCD85CACCD2CA900704E024D5
:1004D90001FEF0BEFF05900704E4F0EF24FF92AFA0
:1004E90022E5829007B3F0E05403FF9007B2E0FEE3
:1004F900BE01067D047E0080047D007E00ED42077A
:100509008F8202048FE5829007B7F09007B6E0FF6B
:1005190074015FFEEF035401FDEF03035401FFEE85
:10052900C42354E0FE430640EDC454F0420690074C
:10053900B4E0FDFB3395E05303C0E4CBC4540F6B27
:10054900CB540FCB6BCB30E30244F0EB4206900760
:10055900B7E0FCFA3395E05302C0E4A2E7CA33CA14
:1005690033A2E7CA33CA33CA540330E10244FCEA6E
:1005790042068E82C007C005C00412048FD00453FE
:10058900043F8C8212048FD00553053F8D821204DB
:100599008FD007900604E06015EFC454F0FF900770
:1005A900B5E0FE53060FEF42068E8212048F020455
:1005B9002F90001412163C90079DE070012275825D
:1005C9004D12048F900604E0601E75825A12048F42
:1005D90075824012048F75820012048F7582001291
:1005E900048F75820002048F75823312048F75821D
:1005F9004012048F75820012048F75820002048FE5
:100609009007B87403F09007B914F09007BA14F082
:100619009007BBE4F0E5A030E6067E017F00800488
:100629007E007F00E5A030E7067C027D0080047C27
:10063900007D00EC4E24B8F582E43407F583E0F53B
:100649008222E5B0C45401B401009200E433F5827A
:10065900229007BC7414F09007BD23F09007BE23C5
:10066900F09007BF7464F0E59030E2067E017F00E8
:1006790080047E007F00E59030E4067C027D0080E6
:10068900047C007D00EC4E24BCF582E43407F5833C
:10069900E0F58222E5829007C0F0E5A020E5047527
:1006A9008201229007C0E0FFE06003BF0204758267
:1006B9000222758200221232B8900B5774D3F0745B
:1006C90007A3F0E4A3F0900B5A74D7F07407A3F0D2
:1006D900E4A3F0900B5D74DBF07407A3F0E4A3F0DE
:1006E9009007CF75F0001222989007CFE0FCA3E0A5
:1006F900A3E0A3E09007C874075CF09007C9E0FE87
:10070900A3E0FF9007D3E0FCA3E0FDA3E0FAA3E098
:10071900FB8E00EFF93395E0FEFFE82CFCE93DFD87
:10072900EE3AFEEF3BFFC3EC9468ED94C5EE94FFFF
:10073900EF6480947F500C9007C57468F074C5A36A
:10074900F08028C374989C743A9DE49E74808FF05D
:1007590063F08095F0500C9007C57498F0743AA333
:10076900F080089007C5ECF0EDA3F09007C5E0FE16
:10077900A3E0FF9007C9EEF0EFA3F09007D3E4F0F0
:10078900A3F0A3F0A3F09007CBE0FEA3E0FF90074E
:10079900D7E0FCA3E0FDA3E0FAA3E0FB8E00EFF9AC
:1007A9003395E0FEFFE82CFCE93DFDEE3AFEEF3B18
:1007B900FFC3EC9468ED94C5EE94FFEF6480947FD9
:1007C900500C9007C37468F074C5A3F08028C374F3
:1007D900989C743A9DE49E74808FF063F08095F044
:1007E900500C9007C37498F0743AA3F080089007EE
:1007F900C3ECF0EDA3F09007C3E0FEA3E0FF900780
:10080900CBEEF0EFA3F09007D7E4F0A3F0A3F0A3A9
:10081900F09007CDE0FEA3E0FF9007DBE0FCA3E04A
:10082900FDA3E0FAA3E0FB8E00EFF93395E0FEFFAC
:10083900E82CFCE93DFDEE3AFEEF3BFFC3EC948169
:10084900ED94FFEE94FFEF6480947F500C9007C104
:100859007481F074FFA3F08026C374809CE49DE446
:100869009E74808FF063F08095F0500B9007C174EF
:1008790080F0E4A3F080089007C1ECF0EDA3F090BC
:1008890007C1E0FEA3E0FF9007CDEEF0EFA3F090E3
:1008990007DBE4F0A3F0A3F0A3F090079FE0700159
:1008A9002290079DE070012290079FE4F090079C39
:1008B900E0700302094C90079CE4F0A2AFE433FF17
:1008C900C2AF9007C9E4F0A3F09007CBF0A3F09072
:1008D90007CDF0A3F09007C8F0900704E090070552
:1008E900F0900706E4F0C2CA43C08053C07FEF24EA
:1008F900FF92AF90001412163C90079DE06044757A
:10090900824D12048F900604E0602075825A120409
:100919008F75824012048F75820012048F758200D0
:1009290012048F75820012048F80187582331204A5
:100939008F75824012048F75820012048F758200B0
:1009490012048F9007C8E0FF9007C7E0FEEFB506D5
:10095900259007C9E0F5F0A3E045F070199007CBA1
:10096900E0F5F0A3E045F0700D9007CDE0F5F0A3B8
:10097900E045F07001229007C9E0FEA3E0FFC3EE55
:100989009480EF6480947F50089007EB7480F08026
:100999001CC3747F9E74808FF063F08095F05008BB
:1009A9009007EB747FF080059007EBEEF09007EB72
:1009B900E0FFFD3395E0FE9007C9E0FBA3E0FCEB07
:1009C900C39DFBEC9EFC9007C9EBF0ECA3F09007EC
:1009D900CBE0FBA3E0FCC3EB9480EC6480947F50F4
:1009E900089007EE7480F0801CC3747F9B74808C20
:1009F900F063F08095F050089007EE747FF0800561
:100A09009007EEEBF09007EEE0FCFA3395E0FB90EF
:100A190007CBE0F8A3E0F9E8C39AF8E99BF9900756
:100A2900CBE8F0E9A3F09007CDE0F8A3E0F9C3E83B
:100A390094F8E96480947F50089007F174F8F08085
:100A49001CC3740798748089F063F08095F050088E
:100A59009007F17407F080059007F1E8F09007F12D
:100A6900E0F5088508093395E0F50A9007CDE0F827
:100A7900A3E0F9E8C39509F8E9950AF99007CDE8E3
:100A8900F0E9A3F09007C8E0F99007C7F07401599D
:100A9900F509E9035401F89007F5E903035401F056
:100AA900E509C42354E0F9430140E8C454F0420184
:100AB9005302C0E4C4CAC4540F6ACA540FCA6ACAEA
:100AC90030E30244F0EA42015305C0E4A2E7CD3322
:100AD900CD33A2E7CD33CD33CD540330E10244FC0D
:100AE900ED42018982C007C00412048FD004D007E7
:100AF90053073F8F82C00412048FD00453043F8CE4
:100B09008212048F900604E060159007F5E0C45442
:100B1900F0FFA90853010FEF4201898212048F02E5
:100B2900042F74305587C4540FF582227582001240
:100B390021F07582011221F00218B575FF0075A127
:100B49005575A1AA75B2D875B38675A1FF9000072E
:100B590012163C85C6C643C28053C6FD43BA20530C
:100B6900C6FD43BA8053C6FE43C40853C6FE53C4E8
:100B7900FB53C5FB53C6F753BEFB53BFFB53C6FB21
:100B890053BCBF43BD4053C6FB53BC7F43BD8053D9
:100B9900C6FD53BAFB43BB0453C6FD53BAEF43BB6F
:100BA9001053C6F753BEEF43BF1053C6FB53BCDF08
:100BB90043BD2053C6FD53BABF53BBBF85C6C653F9
:100BC900C2BF43C340E5C120E60B850E82850F8372
:100BD900120041800685C6C643C2409007F87403D7
:100BE900F09007F914F09007FA14F09007FBE4F07D
:100BF900E5A030E6067E017F0080047E007F00E5E7
:100C0900A030E7067C027D0080047C007D00EC4E6C
:100C190024F8F582E43407F583E0900600F0E5B0A6
:100C2900C454019007F7B40100E433F09007F7E0EA
:100C3900900601F09007FC7414F09007FD23F090E2
:100C490007FE23F09007FF7464F0E59030E2067E1A
:100C5900017F0080047E007F00E59030E4067C027D
:100C69007D0080047C007D00EC4E24FCF582E43498
:100C790007F583E0FF900602F0900600E0FEE5A08C
:100C890020E5089007F67401F08013EE6003BE02B8
:100C9900089007F67402F080059007F6E4F09007D3
:100CA900F6E0900603F08F03E4FCFDFE74D02BFB05
:100CB90074073CFCE43DFDE43EFE7A00EF2FFFEAB9
:100CC90033FA900D9AEFF0EAA3F0E4A3F0A3F08BC6
:100CD900828C838DF0EE123362AC82AD839007A1D2
:100CE900ECF0758CF0758A60C28DD28CC2CA75C958
:100CF9000075CBFF75CA9C85CBCD85CACCC2CFE424
:100D0900F5A4F5A5F5A675A7FA43AA0253AAFD43CA
:100D1900A38053AAFED288C289900787E4F090077E
:100D290088F0900799F090079AF090079BF043CECE
:100D390010C29FD29EC29DD29C438780740F558951
:100D49004420F58943C9A0758DE6D28ED299D2A9DE
:100D5900D2ADD2E9D2A8C2AC75A15575A1AA75EBDD
:100D6900C343B10175A1FF74305587C4540FFFFE09
:100D790024FC402DEE2E900D837380178015800280
:100D8900800890079E7401F0801753C0BF9000320D
:100D990012163C90003212163C43C04090079EE464
:100DA900F0D2AFA2AFE433FFC2AF900704E4F090F2
:100DB9000705F0900706F090079EE07035439020F4
:100DC900900001C0071215E7D0075390DF90060382
:100DD900E0FE900600E05403FDBE01067C047E009F
:100DE90080047C007E00EC42058D82C00712048FCE
:100DF900D007900001C0071215E7D00753C07FEF55
:100E090024FF92AF90079EE060FA7582001221F0EC
:100E19007582011221F01218B5900601E0900604BE
:100E2900F090079D740455B0F090079C7401F09000
:100E390007A0E4F02275FF0075A15575A1AA75B246
:100E4900D875B38675A1FF90000712163C85C6C6F2
:100E590043C28053C6FD43BA2053C6FD43BA8053EB
:100E6900C6FE43C40853C6FE53C4FB53C5FB53C651
:100E7900F753BEFB53BFFB53C6FB53BCBF43BD4037
:100E890053C6FB53BC7F43BD8053C6FD53BAFB43D6
:100E9900BB0453C6FD53BAEF43BB1053C6F753BE49
:100EA900EF43BF1053C6FB53BCDF43BD2053C6FD00
:100EB90053BABF53BBBF85C6C653C2BF43C340E580
:100EC900C120E60B850E82850F83120041800685BD
:100ED900C6C643C2409008047403F090080514F094
:100EE90090080614F0900807E4F0E5A030E6067EC5
:100EF900017F0080047E007F00E5A030E7067C02C8
:100F09007D0080047C007D00EC4E2404F582E434ED
:100F190008F583E0900600F0E5B0C4540190080399
:100F2900B40100E433F0900803E0900601F0900862
:100F3900087414F090080923F090080A23F0900827
:100F49000B7464F0E59030E2067E017F0080047E38
:100F5900007F00E59030E4067C027D0080047C007F
:100F69007D00EC4E2408F582E43408F583E0FF9017
:100F79000602F0900600E0FEE5A020E508900802D0
:100F89007401F08013EE6003BE0208900802740237
:100F9900F08005900802E4F0900802E0900603F062
:100FA9008F03E4FCFDFE74D02BFB74073CFCE43D8D
:100FB900FDE43EFE7A00EF2FFFEA33FA900D9AEF37
:100FC900F0EAA3F0E4A3F0A3F08B828C838DF0EE1A
:100FD900123362AC82AD839007A1ECF0758CF07589
:100FE9008A60C28DD28CC2CA75C90075CBFF75CA19
:100FF9009C85CBCD85CACCC2CFE4F5A4F5A5F5A6D1
:1010090075A7FA43AA0253AAFD43A38053AAFED2A5
:1010190088C289900787E4F0900788F0900799F0D3
:1010290090079AF090079BF043CE10C29FD29EC2C0
:101039009DD29C438780740F55894420F58943C903
:10104900A0758DE6D28ED299D2A9D2ADD2E9D2A815
:10105900C2AC75A15575A1AA75EBC343B10175A1C0
:10106900FF74305587C4540FFFFE24FC402DEE2E2B
:1010790090107D73801780158002800890079E74F8
:1010890001F0801753C0BF90003212163C90003215
:1010990012163C43C04090079EE4F0D2AFA2AFE4E1
:1010A90033FFC2AF900704E4F0900705F0900706FC
:1010B900F090079EE07035439020900001C0071220
:1010C90015E7D0075390DF900603E0FE900600E095
:1010D9005403FDBE01067C047E0080047C007E0072
:1010E900EC42058D82C00712048FD007900001C021
:1010F900071215E7D00753C07FEF24FF92AF90077F
:101109009EE060FA7582001221F07582011221F0C9
:101119001218B5900601E0900604F090079D74043A
:1011290055B0F090079C7401F09007A0E4F0900787
:10113900A0E07002F5FF90079DE0701590079D747F
:101149000455B0F0E0600A90079C7401F090079F85
:10115900F012042E1232B8900B577420F07408A3C1
:10116900F0E4A3F0900B5A7424F07408A3F0E4A3FC
:10117900F0900B5D7428F07408A3F0E4A3F09008D4
:101189001C75F00012229890081CE0FCA3E0A3E073
:10119900A3E090081574075CF0900816E0FEA3E040
:1011A900FF900820E0FCA3E0FDA3E0FAA3E0FB8E9A
:1011B90000EFF93395E0FEFFE82CFCE93DFDEE3A3E
:1011C900FEEF3BFFC3EC9468ED94C5EE94FFEF642A
:1011D90080947F500C9008127468F074C5A3F08055
:1011E90028C374989C743A9DE49E74808FF063F0D0
:1011F9008095F0500C9008127498F0743AA3F0801E
:1012090008900812ECF0EDA3F0900812E0FEA3E0BC
:10121900FF900816EEF0EFA3F0900820E4F0A3F099
:10122900A3F0A3F0900818E0FEA3E0FF900824E0E3
:10123900FCA3E0FDA3E0FAA3E0FB8E00EFF93395F0
:10124900E0FEFFE82CFCE93DFDEE3AFEEF3BFFC373
:10125900EC9468ED94C5EE94FFEF6480947F500C94
:101269009008107468F074C5A3F08028C374989C22
:10127900743A9DE49E74808FF063F08095F0500C71
:101289009008107498F0743AA3F08008900810EC54
:10129900F0EDA3F0900810E0FEA3E0FF900818EE2F
:1012A900F0EFA3F0900824E4F0A3F0A3F0A3F090EA
:1012B900081AE0FEA3E0FF900828E0FCA3E0FDA3E4
:1012C900E0FAA3E0FB8E00EFF93395E0FEFFE82C8E
:1012D900FCE93DFDEE3AFEEF3BFFC3EC9481ED9452
:1012E900FFEE94FFEF6480947F500C90080E748198
:1012F900F074FFA3F08026C374809CE49DE49E747F
:10130900808FF063F08095F0500B90080E7480F098
:10131900E4A3F0800890080EECF0EDA3F090080E1D
:10132900E0FEA3E0FF90081AEEF0EFA3F090082882
:10133900E4F0A3F0A3F0A3F090079FE07003021577
:10134900CE90079DE070030215CE90079FE4F090C0
:10135900079CE070030213EE90079CE4F0A2AFE44F
:1013690033FFC2AF900816E4F0A3F0900818F0A379
:10137900F090081AF0A3F0900815F0900704E09097
:101389000705F0900706E4F0C2CA43C08053C07F46
:10139900EF24FF92AF90001412163C90079DE06075
:1013A9004475824D12048F900604E0602075825ABC
:1013B90012048F75824012048F75820012048F7592
:1013C900820012048F75820012048F80187582338F
:1013D90012048F75824012048F75820012048F7572
:1013E900820012048F900815E0FF900814E0FEEFC8
:1013F900B50627900816E0F5F0A3E045F0701B90BC
:101409000818E0F5F0A3E045F0700F90081AE0F530
:10141900F0A3E045F070030215CE900816E0FEA394
:10142900E0FFC3EE9480EF6480947F500890083801
:101439007480F0801CC3747F9E74808FF063F08089
:1014490095F05008900838747FF08005900838EEC0
:10145900F0900838E0FFFD3395E0FE900816E0FBB8
:10146900A3E0FCEBC39DFBEC9EFC900816EBF0ECB3
:10147900A3F0900818E0FBA3E0FCC3EB9480EC64B4
:1014890080947F500890083B7480F0801CC3747F5F
:101499009B74808CF063F08095F0500890083B7441
:1014A9007FF0800590083BEBF090083BE0FCFA33B5
:1014B90095E0FB900818E0F8A3E0F9E8C39AF8E989
:1014C9009BF9900818E8F0E9A3F090081AE0F8A34E
:1014D900E0F9C3E894F8E96480947F500890083EE5
:1014E90074F8F0801CC3740798748089F063F080E5
:1014F90095F0500890083E7407F0800590083EE882
:10150900F090083EE0F50B850B0C3395E0F50D9056
:10151900081AE0F8A3E0F9E8C3950CF8E9950DF984
:1015290090081AE8F0E9A3F0900815E0F99008147A
:10153900F0740159F50CE9035401F8900842E903E4
:10154900035401F0E50CC42354E0F9430140E8C415
:1015590054F042015302C0E4CAC4540F6ACA540F7A
:10156900CA6ACA30E30244F0EA42015305C0E4A260
:10157900E7CD33CD33A2E7CD33CD33CD540330E1BD
:101589000244FCED42018982C007C00412048FD0D5
:1015990004D00753073F8F82C00412048FD004532D
:1015A900043F8C8212048F900604E0601590084273
:1015B900E0C454F0FFA90B53010FEF4201898212D5
:1015C900048F12042F9007A0E060030211379007DF
:0E15D9009FE06003021137900706E002113711
:0600FB00750E00750FF404
:1015E700AF83E582900843F0EFA3F0900843E0FE55
:1015F700A3E0FFEE4F603505A105A105A105A105F3
:10160700A105A105A105A105A105A105A105A105A3
:10161700A105A105A105A105A105A105A11EBEFF63
:10162700011F900843EEF0EFA3F080C7900843EE48
:10163700F0EFA3F022AF83E582900845F0EFA3F027
:10164700900845E0FEA3E0FF8E048F051EBEFF0154
:101657001F900845EEF0EFA3F0EC4D60109003E803
:10166700C007C0061215E7D006D00780DB900845F3
:06167700EEF0EFA3F022EB
:05010100900B3FE4F04B
:10167D00AFF0AE83E582900B22F0EEA3F0EFA3F076
:10168D00900B25E4F0A3F0A3F0A3F0900B1EE0FE69
:10169D00A3E08E04C423CCC423541F6CCC541FCCA4
:1016AD006CCCFD530607900B29EEF0900B20E0FF5C
:1016BD00900B2AF0900B22E0F510A3E0F511A3E0BA
:1016CD00F512900B2AE0F970030217C2900B29E076
:1016DD00F87408C398F8FEC3E99E4002880189F0AA
:1016ED0005F078017A007B007E00800CE828F8EA8E
:1016FD0033FAEB33FBEE33FED5F0F1E824FFF513AF
:10170D00EA34FFF514EB34FFF515EE34FFF516EC66
:10171D002510FAED3511FBAE128A828B838EF012F5
:10172D0034B9FA8A17751800751900751A00900BDF
:10173D0029E0FE8EF005F0A817AA18AB19AE1A8095
:10174D000DC3EE13FEEB13FBEA13FAE813F8D5F015
:10175D00F0E51358F517E5145AF518E5155BF5196D
:10176D00E5165EF51A900B2AE0FEEFC39EFBC0074F
:10177D008BF005F0A817AA18AB19AF1A800CE82842
:10178D00F8EA33FAEB33FBEF33FFD5F0F1900B258D
:10179D00E048F0A3E04AF0A3E04BF0A3E04FF09057
:1017AD000B2AEEC399F0900B29E4F00CBC00010D4F
:1017BD00D0070216CF900B21E0700302186DEF7069
:1017CD000302186DBF2000400302186DEF14FE8E4A
:1017DD00F005F07E017D007C007B00800CEE2EFE7E
:1017ED00ED33FDEC33FCEB33FBD5F0F1900B25E045
:1017FD00F517A3E0F518A3E0F519A3E0F51AE51721
:10180D005206E5185205E5195204E51A5203EE4D3C
:10181D004C4B604C8FF005F07F017E007D007C000D
:10182D00800CEF2FFFEE33FEED33FDEC33FCD5F0E6
:10183D00F11FBFFF091EBEFF051DBDFF011CEFF40B
:10184D00FFEEF4FEEDF4FDECF4FC900B25EF4517E7
:10185D00F0EE4518A3F0ED4519A3F0EC451AA3F0F1
:10186D00900B25E0FCA3E0FDA3E0FEA3E08C828DB0
:10187D00838EF022E582900B2BF0E0FF75F003A430
:10188D00FDAEF02418F582EE340BF583E4F0ED2473
:10189D0018FDEE340BFE8D828E83A3E4F0EF600411
:1018AD0075E5002275E40022C2EA75E28075E30059
:1018BD009024477448F090244CE4F0A3F090244E0B
:1018CD0004F0E4A3F0F5D4F5D675E28975D2407530
:1018DD00D8FF75820012188175820112188175E189
:1018ED000322E582900B2CF0E5E35480FFE0547F5A
:1018FD004FF5E322E582900B2DF0E0600753E2BF38
:10190D0053D27F2243E24022E582900B2EF09008C5
:10191D00477408F07582001218EF758201121901D3
:10192D00900B2EE0FFE0701374FB55E44402F5E4D8
:10193D0090000F12163C53E4FD8014BF011174FB8F
:10194D0055E54402F5E590000F12163C53E5FD9068
:10195D0000FA1215E7C2D822E582900B2FF0E07540
:10196D00F003A42418FE740B35F0FF8E828F83E0F4
:10197D00FDBD010050078E828F837401F0900B2FF7
:10198D00E0FF7049E5DB20E303021A23E5E420E0E4
:10199D0035E5DB30E21AEF75F003A42418FD740B66
:1019AD0035F0FE8D828E83A3A3E4F043E40480160C
:1019BD00EF75F003A42418FD740B35F0FE8D828EA7
:1019CD0083A3A37401F043E40175820022BF014695
:1019DD00E5DB30E741E5E520E035E5DB30E61AEF04
:1019ED0075F003A42418FD740B35F0FE8D828E83E3
:1019FD00A3A3E4F043E5048016EF75F003A42418C7
:101A0D00FE740B35F0FF8E828F83A3A37401F04318
:101A1D00E5017582002275821622E582900B31F068
:101A2D00E075F003A42418FE740B35F0FF8E828F41
:101A3D0083A3E0F582C007C0061218EFD006D007C9
:101A4D008E828F83A3A3E0F582021901E582900BAC
:101A5D0035F0900B36E4F0A3F0900B32E0FF8FD40D
:101A6D008FD6900B35E0FEC4540FFDBD0103ED8004
:101A7D0001E4F524E4BD090104FB900B33E0F9A367
:101A8D00E0FA8ED5C2D97521C8752200E52145220F
:101A9D00602C20D929900001C007C006C005C003E5
:101AAD00C002C0011215E7D001D002D003D005D07D
:101ABD0006D007152174FFB52102152280CE75D5EC
:101ACD000020D9047582FE2220D903021BD530DEF9
:101ADD000475820022E5D9540FF523740EB5230445
:101AED0074018001E4F521600774204523F58222FD
:101AFD00740AB5230474018001E4F8603FE94A706B
:101B0D000A74204523F52485248222C00389038A83
:101B1D0004C3EB94FFEC94FFD003500519B9FF01FA
:101B2D001AC003900B36E024FFFBA3E034FFFC90BA
:101B3D000B36EBF0ECA3F0D003021BD8E524700BB1
:101B4D00EB7031BD0D028003021BD130DE047582B6
:101B5D0000227402B5230475820022E5217003E88A
:101B6D00600774204523F58222E523605E742045CD
:101B7D0023F5822230DE0475820022EF600D740B96
:101B8D00B5230474018001E4FC800B7403B52304B8
:101B9D0074018001E4FCEC600475820022E5217083
:101BAD0003E8600774204523F582227403B52302F0
:101BBD008019740BB523028012E523600E74204545
:101BCD0023F582227582FE2275D8FF90000FC00783
:101BDD00C006C005C003C002C0011215E7D001D078
:101BED0002D003D005D006D007900B36E02401F0CB
:101BFD00A3E03400F0900B36E0F8A3E0FCC3E894CA
:101C0D00C8EC94005003021A8F75822022AF83E531
:101C1D0082900B3DF0EFA3F0900B3DE0FEA3E0FFB3
:101C2D00900B42EEF0EFA3F0900B38E0FBA3E0FC3D
:101C3D00A3E0FD9000C8C007C006C005C004C003E6
:101C4D001215E7D003D004D005D006D007EB4C60B9
:101C5D000E8B828C838DF0E412347EA312347E754C
:101C6D00D708900B32E4F0900B337410F07427A367
:101C7D00F07582D0C007C006C005C004C003121A9B
:101C8D0059AA82D003D004D005D006D007EA60034C
:101C9D008A8222C006C00775D6D075D4D075D701FB
:101CAD00900107E0FA7900900106E0F87F0042010B
:101CBD00EF4202900B40E9F0EAA3F0D007D006E91D
:101CCD004A7003021ECEEE4F7003021ECE9001002D
:101CDD00E0FF20E703021DD4900B40E0FEA3E0FFE0
:101CED004E7003021DCE90012CC007C006C005C06A
:101CFD0004C0031215E7900B32E5D4F0900B33744A
:101D0D0010F07427A3F0758290121A59AA82D0038D
:101D1D00D004D005D006D007EA60038A8222A9D16B
:101D2D007A00C3E99EEA9F5006A9D17A0080048EFD
:101D3D00018F0289067F00900B40E0F8A3E0FAE8DE
:101D4D00C39EF8EA9FFA900B40E8F0EAA3F0EB4C43
:101D5D0060248B828C838DF01234B9F8A31234B9C0
:101D6D00FAEE28FEEF3AFF8B828C838DF0EE123463
:101D7D007EA3EF12347E900B42E0FEA3E0FF7A00CB
:101D8D00C3EA995018EA2EF525E43FF5268A8275A7
:101D9D008300E0852582852683F00A80E3900B423F
:101DAD00E0FEA3E0FF900B42E92EF0E43FA3F0E547
:101DBD00D1600E900847E0FFC3E5D19F4003021CA0
:101DCD00E575D700021ECE900B40E0FEA3E0FF4E5E
:101DDD007003021ECE9000C8C007C006C005C00427
:101DED00C0031215E7D003D004D005D006D007905C
:101DFD000847E0F97A00C3EE99EF9A9201400990F5
:101E0D000847E0F97A0080048E018F0289D7900B84
:101E1D0042E0FEA3E0FFE5D72EFEE43FFF900B422C
:101E2D00EEF0EFA3F08E828F83A3E0FABA091B9038
:101E3D000B3FE0600679007A00800479017A00900A
:101E4D000B3FE9F08E828F83E9F0900B32E5D6F0EF
:101E5D00900B337410F07427A3F0758210C005C079
:101E6D0004C003121A59AF82D003D004D005EF601D
:101E7D00038F8222AED77F00900B40E0F9A3E0FAEA
:101E8D00E9C39EF9EA9FFA900B40E9F0EAA3F0EB63
:101E9D004C7003021DD48B828C838DF01234B9FEED
:101EAD00A31234B9FFA9D77A00E92EFEEA3FFF8BC2
:101EBD00828C838DF0EE12347EA3EF12347E021DE0
:101ECD00D49000C81215E7E5D760047F9080027F9B
:101EDD0010900B3274C0F0900B337410F07427A374
:101EED00F08F82121A59E582FF60038F8222E5D7A7
:101EFD007003F58222E5D17003F5822275821722D7
:101F0D00AF83E582900B45F0EFA3F0900B45E0FE1B
:101F1D00A3E0FF900B44E0FD7C00C3EC9D50178CBB
:101F2D00027B01EC2EF582E43FF583E493F98A827E
:101F3D008B83F00C80E4229008477408F0900B44DA
:101F4D00F09034D9121F0D900B387447F0740BA319
:101F5D00F0E4A3F0900B3BF07402A3F0900848124C
:101F6D001C1AE582FF60038F822290084FE09008D3
:101F7D0047F09034DFE493FE900B47E0FCA3E0FDC7
:101F8D007B00C3EC9EED9B5004758217228F82223D
:101F9D00E582900B49F0900B447408F09034F112E7
:101FAD001F0D900B49E0FF900102F0900B38E4F00B
:101FBD00A3F0A3F0900B3BF0A3F0900000C007122C
:101FCD001C1AAE82D007EE60038E82228F82C0066D
:101FDD001218EF90006412163CD0068E8222E58214
:101FED00900B4AF0900B447408F0903501121F0DC0
:101FFD00900B4AE0900102F0900B38E4F0A3F0A3AF
:10200D00F0900B3BF0A3F0900000021C1A900B44D3
:10201D007408F09034F9121F0D900B38E4F0A3F012
:10202D00A3F0900B3BF07402A3F0900848021C1A29
:10203D00AF83E582900B50F0EFA3F0900B50E0FED4
:10204D00A3E0FF8E828F83E07C0024FEFDEC34FF45
:10205D00A2E713CD13CD8E828F83A3E0FCBC0302C8
:10206D00800475820022900B4DE0F512A3E0F5136C
:10207D00900B4BE0F516A3E0F5178516108517119B
:10208D007800C3E89D5071C005AC12AD13EC24FF70
:10209D00F514ED34FFF51588037D00C3EB9514EDB4
:1020AD009515D0055052C00588037C00EB2BFBEC39
:1020BD0033FC74032BFAE43CFDEA2EFAED3FFD8A66
:1020CD00828D83E0D005600FE82510F582E435118F
:1020DD00F583743FF0801EE82516F9E43517FA7480
:1020ED00022BFBE43CFCEB2EF582EC3FF583E0FC90
:1020FD0089828A83F008808AE82516F582E43517EF
:10210D00F583E4F075820122AF83E582900B52F0E6
:10211D00EFA3F0900B52E0FEA3E0FF7C007D008E5C
:10212D00828F83E0FB7A00C3EC9BED64808AF063C1
:10213D00F08095F050070CBC00E50D80E222900B6D
:10214D00447408F09034E1121F0D900B387454F064
:10215D00740BA3F0E4A3F0900B3BF07402A3F0908A
:10216D000848121C1AE582FF60038F82229034E723
:10217D00E493FF900B54E0FDA3E0FE7C00C3ED9FC4
:10218D00EE9C50047582172290084AE0FF7E009065
:10219D00084BE0FCE42FFFEC3EFE900B447408F07E
:1021AD009034E1C007C006121F0DD006D0078F0571
:1021BD00900106EDF08E07900107EFF0900B38744B
:1021CD0054F0740BA3F0E4A3F0900B3BF07402A356
:1021DD00F0900848121C1AE582FF60038F82227569
:1021ED00820022E582900B56F0E0FF75F010A4FD01
:1021FD00AEF024F8F582EE340AF583E4F0A3F0A3F3
:10220D00F0A3F0ED24F8FDEE340AFE8D828E83A34B
:10221D00A3A3A3E4F0A3F0A3F0A3F074082DF5821B
:10222D00E43EF583E4F0A3F0A3F0A3F0740C2DF5D8
:10223D0082E43EF583E4F0A3F0A3F0A3F07E00EE7C
:10224D0075F016A42448FC740A35F0FD74012CFABF
:10225D00E43DFB8A828B83E0B507298C828D83E474
:10226D00F08A828B83F08C828D83A3A3F08C828D78
:10227D0083A3A3A3F08C828D83A3A3A3A3F0A3F0C8
:10228D00A3F0A3F00EBE080040B522AFF0AE83E57B
:10229D0082900B60F0EEA3F0EFA3F07F00EF75F0EE
:1022AD0016A4FDAEF02448FBEE340AFC8B828C8321
:1022BD00E070030225E7ED2448FDEE340AFE8D8221
:1022CD008E83A3A3A3A3E0F9A3E0FAA3E0FBA3E00D
:1022DD00FCB9020BBA0008BB0005BC00028003026A
:1022ED0025E78D828E83A3E0FC900B30E4F08C8289
:1022FD00C007C006C005121A27D005D006D0078D1D
:10230D00828E83A3A3A3E0FE747F5E4490FDEE3026
:10231D00E7067CC07E0080047C007E00900B32ECD2
:10232D00F0900B33E4F0A3F08D82C007121A59E53B
:10233D0082D00760030225E7EF75F016A42448FD4F
:10234D00740A35F0FE74032DFBE43EFC8B828C8306
:10235D00E0FA6302808B828C83EAF0900B63E5D107
:10236D00F0E070030225E774082DFBE43EFC900BB2
:10237D00647400F07400A3F08B828C83E0FA601516
:10238D00900000E0F9B50202800122900B64740107
:10239D00F07400A3F0900B63E0F97A008B828C83CC
:1023AD00E060067B017C0080047B007C00E9C39B20
:1023BD00F9EA9CFA74152DF582E43EF583E0FC7B79
:1023CD000074072CFCE43BC423CCC423541F6CCCF9
:1023DD00541FCC6CCC30E40244E0FBC3E99CEA64AE
:1023ED00808BF063F08095F0500122740B2DF582F7
:1023FD00E43EF583E0FC6070C007900B60E0F527CC
:10240D00A3E0F528A3E0F529900B64E0F8A3E0FB29
:10241D007F0074092DF582E43EF583E0F9A3E0FA1F
:10242D00900B1EE9F0EAA3F0900B20ECF0900B213D
:10243D00E4F088828B838FF0C006C00512167DAC48
:10244D0082AA83ABF0FFD005D0068527828528832D
:10245D008529F0EC12347EA3EA12347EA3EB1234FC
:10246D007EA3EF12347ED007740E2DF582E43EF577
:10247D0083E0FC6071C007900B57E0F527A3E0F5F2
:10248D0028A3E0F529900B64E0F8A3E0FB7F00742E
:10249D000C2DF582E43EF583E0F9A3E0FA900B1ED6
:1024AD00E9F0EAA3F0900B20ECF0900B217401F011
:1024BD0088828B838FF0C006C00512167DAC82AA70
:1024CD0083ABF0FFD005D00685278285288385292B
:1024DD00F0EC12347EA3EA12347EA3EB12347EA309
:1024ED00EF12347ED00774112DF582E43EF583E0B2
:1024FD00FC6071C007900B5AE0F527A3E0F528A307
:10250D00E0F529900B64E0F8A3E0FB7F00740F2D3C
:10251D00F582E43EF583E0F9A3E0FA900B1EE9F0B5
:10252D00EAA3F0900B20ECF0900B217401F088825F
:10253D008B838FF0C006C00512167DAC82AA83ABCB
:10254D00F0FFD005D0068527828528838529F0ECFC
:10255D0012347EA3EA12347EA3EB12347EA3EF1263
:10256D00347ED00774142DF582E43EF583E0FC60D3
:10257D0069C007900B5DE0F527A3E0F528A3E0F512
:10258D0029900B64E0F8A3E0FB7F0074122DF58217
:10259D00E43EF583E0FDA3E0FE900B1EEDF0EEA30F
:1025AD00F0900B20ECF0900B217401F088828B835E
:1025BD008FF012167DAC82AD83AEF0FF852782853C
:1025CD0028838529F0EC12347EA3ED12347EA3EE20
:1025DD0012347EA3EF12347ED0070FBF08005003D4
:1025ED000222AA22AF83E582900B69F0EFA3F0904F
:1025FD000B6BE4F0A3F0900B6DF0900B6EF0900B65
:10260D0075F0A3F0A3F0A3F0900B79F0A3F0A3F075
:10261D00A3F0900B7DF0A3F0A3F0A3F0900B81F04D
:10262D00A3F0A3F0A3F0900B85F0900B86F0900B28
:10263D0087F0A3F0900B68E075F016A42448FE74A3
:10264D000A35F0FF74082EFCE43FFB7D008C008BF7
:10265D00018D02900DA7E4F0900DA8740EF0E4A387
:10266D00F0888289838AF0C007C006C005C004C007
:10267D0003123456D003D004D005D006D007900BEA
:10268D0069E0F53FA3E0F540853F2A85402B7404B2
:10269D002EF533E43FF534900B66E0F52CA3E0F511
:1026AD002D900B6BE0F52EA3E0F52FC3E52E952CA9
:1026BD00E52F952D4003022D3BE52E253FF582E5B7
:1026CD002F3540F583E0F8900B6F74FC58F05300F4
:1026DD0003900B70E8F0900B71E4F0A3F0A3F0A35E
:1026ED00F0B80306900B707404F0900B6BE0F52EB0
:1026FD00A3E0F52F900B70E0F537753000C3E53092
:10270D009537507C852E31852F3274012531F9E4B2
:10271D003532FAAE307F008E358F36E53529F9E545
:10272D00363AFAC3E9952CEA952D504F74012531AF
:10273D00FEE43532FFE5352EFEE5363FFFEE252A68
:10274D00F582EF352BF583E0F9E4FAFEFFE530C4B1
:10275D000354F8F888F005F0800CE929F9EA33FA0A
:10276D00EE33FEEF33FFD5F0F1900B71E049F0A39E
:10277D00E04AF0A3E04EF0A3E04FF0053002270A47
:10278D00900B6DE0F530900B6FE0FEE4BEC00104E0
:10279D00F5377800853035753600E53760087531C9
:1027AD00017532008005E4F531F532E535C395311B
:1027BD00F9E5369532FA88067F00C3EE99EF64800D
:1027CD008AF063F08095F050030880C8900B6FE09D
:1027DD00FFBF04028063BF0803022892BF140302E7
:1027ED002D16BF1803022D16BF2403022D16BF2868
:1027FD0003022D16BF3403022D16BF4403022D16FE
:10280D00BF6403022D16BF7403022CC9BF800302DF
:10281D0029E0BF8403022CDEBF9003022D16BF9466
:10282D0003022D03BFA0030229CDBFB003022D1655
:10283D00BFC0030229D7022D16900B71E0F538A306
:10284D00E0F539A3E0F53AA3E0F53B900B75E538DB
:10285D00F0E539A3F0E53AA3F0E53BA3F07401B53B
:10286D00380D14B53909B53A06B53B03022D16746A
:10287D0007B5380DE4B53909B53A06B53B03D38034
:10288D0001C3022D16900B6EE0704F900B71E0F5A9
:10289D0038A3E0F539A3E0F53AA3E0F53B7402B5B2
:1028AD00380CE4B53908B53A05B53B028002800F06
:1028BD00C005C004C00312042FD003D004D0058579
:1028CD003382853483E538F0E539A3F0E53AA3F09A
:1028DD00E53BA3F0900B6E7401F0900B71E0F538B1
:1028ED00A3E0F539A3E0F53AA3E0F53BC3743895C1
:1028FD0038E49539E4953AE4953B5003022D16E5FD
:10290D0038240B83F582E538243D83F583E4731673
:10291D00161616161616161616161616161616164A
:10292D00161616161616161616161616161616163A
:10293D001616161616161616161616161616168EB2
:10294D00A3161616161616B82D2D2D2D2D2D2D2D33
:10295D002D2D2D2D2D2D2D2D2D2D2D2D2D2D2D2D9A
:10296D002D2D2D2D2D2D2D2D2D2D2D2D2D2D2D2D8A
:10297D002D2D2D2D2D2D2D2D29292D2D2D2D2D2D82
:10298D0029900B79E538F0E539A3F0E53AA3F0E5A8
:10299D003BA3F0022D16900B7DE538F0E539A3F041
:1029AD00E53AA3F0E53BA3F0022D16900B81E53837
:1029BD00F0E539A3F0E53AA3F0E53BA3F0022D16BF
:1029CD00900B6DE02401F0022D16900B6DE014F0CC
:1029DD00022D16900B89E4F0853382853483E0F85F
:1029ED00A3E0FAA3E0FEA3E0FFB8020BBA0008BE15
:1029FD000005BF00028003022C63900B75E0F538D3
:102A0D00A3E0F539A3E0F53AA3E0F53B7409B53839
:102A1D000CE4B53908B53A05B53B0280028059740E
:102A2D00032CF53CE43BF53D8D3E853C82853D8395
:102A3D00853EF01234B96003022C6374012CF9E465
:102A4D003BFA8D07900B87E0F8A3E0FE89828A831D
:102A5D008FF0E812347EA3EE12347E900B86E0FFE9
:102A6D00900B85E0F5F0EFA4FF853C82853D8385D5
:102A7D003EF012347E022C637401B5380C14B53956
:102A8D0008B53A05B53B028003022C63900B79E043
:102A9D00F8A3E0FAA3E0FEA3E0FFB8300BBA0008FC
:102AAD00BE0005BF00028002807C900B79E4F0A38C
:102ABD00F0A3F0A3F074042CF8E43BFE8D07900B0B
:102ACD0087E0F9A3E0FA88828E838FF0E912347ED5
:102ADD00A3EA12347E74062CF53CE43BF53D8D3EA5
:102AED00900B85E0F538853C82853D83853EF0125F
:102AFD00347E740D2CF53CE43BF53D8D3E8907E5A8
:102B0D00382F853C82853D83853EF012347EAE386C
:102B1D007F00EE29F9EF3AFA900B87E9F0EAA3F07E
:102B2D00900B897401F0900B7DE0F8A3E0FAA3E01F
:102B3D00FEA3E0FFB8310BBA0008BE0005BF0002CE
:102B4D008003022BCF900B7DE4F0A3F0A3F0A3F054
:102B5D0074072CF8E43BFE8D07900B87E0F9A3E09A
:102B6D00FA88828E838FF0E912347EA3EA12347EC6
:102B7D0074092CF53CE43BF53D8D3E900B85E0F55D
:102B8D0038853C82853D83853EF012347E740D2C54
:102B9D00F53CE43BF53D8D3E8907E5382F853C82BC
:102BAD00853D83853EF012347EAE387F00EE29F9E7
:102BBD00EF3AFA900B87E9F0EAA3F0900B89E02445
:102BCD0001F0900B81E0F8A3E0FAA3E0FEA3E0FF93
:102BDD00B8380BBA0008BE0005BF0002800280762F
:102BED00900B81E4F0A3F0A3F0A3F0740A2CF8E4A9
:102BFD003BFE8D07900B87E0F9A3E0FA88828E8368
:102C0D008FF0E912347EA3EA12347E740C2CF53C5D
:102C1D00E43BF53D8D3E900B85E0F538853C828596
:102C2D003D83853EF012347E740D2CF53CE43BF56E
:102C3D003D8D3E8907E5382F853C82853D83853E58
:102C4D00F012347EAE387F00EE29F9EF3AFA900B90
:102C5D0087E9F0EAA3F0900B89E0FF900B86E0FE88
:102C6D00C39F5005900B89EEF0900B86E0FF7E0020
:102C7D00900B89E0F87A00EFC398FFEE9AFE900B67
:102C8D0085E0F97A00900DABEFF0EEA3F089828A22
:102C9D0083C005C004C003123499AE82AF83D00344
:102CAD00D004D005900B87E0F9A3E0FAEE29F9EFF7
:102CBD003AFA900B87E9F0EAA3F0804D900B71E0A2
:102CCD00F8A3E0FAA3E0FEA3E0FF900B85E8F08007
:102CDD00388C828B838DF01234B9702D900B71E08E
:102CED00F8A3E0FAA3E0FEA3E0FF8C828B838DF0C6
:102CFD00E812347E8013900B71E0F8A3E0FAA3E0A4
:102D0D00FEA3E0FF900B86E8F0900B70E0FF7E00D5
:102D1D000FBF00010E900B6BE0F9A3E0FAEF29F95C
:102D2D00EE3AFA900B6BE9F0EAA3F00226AE740DC1
:102D3D002CFFE43BFE8F828E838DF01234B970121E
:102D4D00900B87E0FBA3E0FC8F828E838DF0EB026E
:102D5D00347E22E582900B8AF0900B447408F0903B
:102D6D003509121F0D900B8AE075F016A42448FE4C
:102D7D00740A35F0FF74022EFEE43FFF8E828F83BE
:102D8D00E0900104F0900B38748BF0740BA3F0E419
:102D9D00A3F0900B3BF0A3F0900848C007C00612BB
:102DAD001C1A900B447408F0903511121F0DD006AB
:102DBD00D0078E828F83E0900104F07F0090010692
:102DCD00EFF09001077402F0900B38748BF0740BD8
:102DDD00A3F0E4A3F0900B3BF07402A3F09008482D
:102DED00121C1AE582FF60038F82227E007F009005
:102DFD000B8BE0FCA3E0FDC3EE9CEF9D50070EBED8
:102E0D0000ED0F80EA900B8AE0FF900B66ECF0ED81
:102E1D00A3F0900B68EFF09008481225F175820031
:102E2D00222222E582900B91F0900B92E4F0900B10
:102E3D0091E0FFFE75F003A4FCADF08F44754300E7
:102E4D00900064C007C006C005C00412163C85443E
:102E5D00821221F0854482121915D004D005D006B6
:102E6D00D0077900900001C007C006C005C004C09E
:102E7D000112163CD001D004D005D006D0078F82A8
:102E8D00C007C006C005C004C001121965E582D097
:102E9D0001D004D005D006D007600609B964004002
:102EAD00C3B964188F82C007C006C005C0041218CC
:102EBD0081D004D005D006D0070232A6900B30E4A5
:102ECD00F08E82C007C006C005C004121A27121F5B
:102EDD0044A982D004D005D006D007900B92E9F01A
:102EED00E96003023283C004C005EE75F010A4F84A
:102EFD00A9F024F8F541E9340AF542900850E0FABA
:102F0D007B007C007D00854182854283EAF0EBA346
:102F1D00F0ECA3F0EDA3F0E824F8F8E9340AF97425
:102F2D000428F541E439F542900851E0FA7B007C24
:102F3D00007D00854182854283EAF0EBA3F0ECA38E
:102F4D00F0EDA3F0740828F541E439F542900852EC
:102F5D00E0FA7B007C007D00854182854283EAF0AA
:102F6D00EBA3F0ECA3F0EDA3F0740C28F8E439F921
:102F7D00900853E0FD7C007B007A0088828983ED08
:102F8D00F0ECA3F0EBA3F0EAA3F0900848C007C063
:102F9D0006C005C004122115D004D005D00690340A
:102FAD00F3E4932EF541854182C006C004121F9DA6
:102FBD00AD82D004D006D007900B92EDF0EDD00588
:102FCD00D0046003023283EE75F003A42418FA7462
:102FDD000B35F0FB8A828B83A3E541F0C007C00659
:102FED00C005C00412201A900848122115D004D033
:102FFD0005D006900B4B7448F07408A3F0900B4D60
:10300D00E4F07402A3F0900B4FEEF0900848C00668
:10301D00C005C00412203D12214BAB82D004D00557
:10302D00D006D007900B92EBF0EB60030232839049
:10303D000D95E4F0A3F07A007B0090084AE0F98941
:10304D004175420090084BE0F9E42541F541E93521
:10305D0042F5428A008B01C002C003AA41AB42C3B4
:10306D00E89AE99BD003D00250070ABA00CC0B8036
:10307D00C990084DE0F582121FEB90084AE0FB7AEB
:10308D000090084BE0F9E42BFBE93AFA8B498A4AA8
:10309D0078007900C3E89549E9954A5024E82495CC
:1030AD00F541E9340BF542E82448F582E93408F599
:1030BD0083E0FB854182854283F008B800D6098004
:1030CD00D3900848E0F9900B93F0E4A3F0900B91A6
:1030DD00E0F54B854B46900B93E0F541A3E0F542AF
:1030ED00C3E5419549E542954A400302327FE541EA
:1030FD002495F541E542340BF542900D97E541F0ED
:10310D00E542A3F0854182854283A3E0F545740431
:10311D00B5450280227405B5450280387421B54548
:10312D000302321A7424B545030232377425B545AE
:10313D000302324202324DA841A942900D95E8F0AA
:10314D00E9A3F0900B8DE8F0E9A3F0854682122EED
:10315D002E023256854182854283122115900D959E
:10316D00E0F8A3E0F988828983A3A3A3A3A3E0F9E0
:10317D00B903028003023256A841A942740228F510
:10318D0047E439F548854782854883E0F920E70310
:10319D000232567800E875F016A42448F9740A3501
:1031AD00F0FB89828B83E0600608B8080040E6E8F2
:1031BD0075F016A42448F54C740A35F0F54D7403DA
:1031CD00254CF9E4354DFB854782854883E089829E
:1031DD008B83F0854C82854D837401F004254CF56D
:1031ED0047E4354DF548900D95E0F9A3E0FB898254
:1031FD008B83A3A3E0854782854883F0854C828528
:10320D004D83A3E54BF08882122D60803C900D9587
:10321D00E0FAA3E0FBA841A942900B8FE8F0E9A3E7
:10322D00F08A828B83122E2F801F854182854283E7
:10323D001221158014854182854283122115800942
:10324D00854182854283122115900D97E0FAA3E006
:10325D00FB8A828B83E0FA7B00900B93E0F8A3E06E
:10326D00F9EA28F8EB39F9900B93E8F0E9A3F002AD
:10327D0030E375820022EC2418F582ED340BF583D2
:10328D007402F0758201C007C006C005C004121992
:10329D0001D004D005D006D007054374F625434070
:1032AD0003022E4D900B92E0F58222900D99E4F0E1
:1032BD0010D80302335BE5DB30E328900B18E06098
:1032CD0005E5E420E03C758200121881900B18741E
:1032DD0001F012042F758200122E30E582900D99A7
:1032ED00F0801F900B18E0FFBF01004015758200A4
:1032FD001221F075820012188112042F900D99740D
:10330D0016F0E5DB30E728900B1BE06005E5E520C6
:10331D00E03C758201121881900B1B7401F01204B0
:10332D002F758201122E30E582900D99F0801F903D
:10333D000B1BE0FFBF010040157582011221F075D6
:10334D00820112188112042F900D997416F0900DB0
:05335D0099E0F5822259
:1034D90080060001000012008006000200001200B0
:1034E9008106000400000900000502000000000038
:1034F900800602030904020400090000000000001C
:10350900210A000000000000810600220000FF00DF
:10336200AF82AE83ADF0FC900D9EEFF0EEA3F0EDD8
:10337200A3F0ECA3F0900DA2E4F0A3F0A3F0A3F06D
:10338200900D9AE0FCA3E0FDA3E0FEA3E0FF7B200A
:10339200C003900D9EE0F8A3E0F9A3E0FAA3E0FBDE
:1033A200900DA6235401F0E828F8E933F9EA33FA3C
:1033B200EB33FB900D9EE8F0E9A3F0EAA3F0EBA358
:1033C200F0900DA2E0F8A3E0F9A3E0FAA3E0FBE895
:1033D20028F8E933F9EA33FAEB33FB900DA2E8F06F
:1033E200E9A3F0EAA3F0EBA3F0D003900DA6E0600E
:1033F20008900DA2E043E001F0900DA2E0F510A3C9
:10340200E0F511A3E0F512A3E0F513C3E5109CE586
:10341200119DE5129EE5139F401F900DA2E510C37A
:103422009CF0E5119DA3F0E5129EA3F0E5139FA386
:10343200F0900D9EE043E001F01BEB60030233923B
:10344200900D9EE0FCA3E0FDA3E0FEA3E08C828D44
:04345200838EF02253
:06007200E478FFF6D8FD62
:10345600AC82AD83900DA8E0FEA3E0FFBE00036042
:10346600121F0F900DA7E08C828D8312347EA3DE8F
:08347600FADFF88C828D83223D
:100050007900E94400601B7A0090351978AD75A0ED
:100060000DE493F2A308B8000205A0D9F4DAF27502
:02007000A0FFEF
:10347E0020F71130F6138883A88220F509F6A88369
:10348E007583002280FEF280F5F022AA83AB828B38
:10349E00F0900DABE0A4F8A9F08AF0E0A429F98B26
:0B34AE00F0A3E0A429F583888222220D
:100078007800E84400600A790075A006E4F309D81E
:10008800FC78ADE84407600C7908900600E4F0A31A
:04009800D8FCD9FABD
:0F004100E47375814D1234D5E582600302003EF1
:1034B90020F71430F6148883A88220F507E6A8833C
:1034C90075830022E280F7E49322E02275820022CC
:00000001FF
