:06000000020043020110A2
:03000B00020125CA
:0100130032BA
:01001B0032B2
:0100230032AA
:03002B000201636C
:01003300329A
:03003B0002015C63
:17009C00900724E4F090072EE4F090072FF090074FE4F0900750F0DE
:0300BE0002003EFF
:03003E00020C8B26
:2000C10022AF83E582900722F0EFA3F0900720E0FFFD3395E0FE900722E0FBA3E0FCC3EB3F
:2000E1009DEC64808EF063F08095F050038F8222900721E0FFFD3395E0FEC3ED9BEE6480DF
:200101008CF063F08095F050038F82228B8222C0E0C082C08390071B740455B0F0D083D0EE
:2001210082D0E032C0E0C082C083C007C006C0D075D000900724E02401F0E0FF90071FE0AE
:20014100C39F500A900724E4F090071D04F0D0D0D006D007D083D082D0E03275AA0043C0B5
:200161004032C0E0C082C083C007C006C0D075D000C2CFE59030E61990071CE06013C2CABE
:2001810075CBFE75CA7085CBCD85CACCD2CA0202A5900719E07005C2CA0202A590071C7493
:2001A10001F0900718E02418F582E43406F583E0FF900718E02401FEF0BEFF05900718E49F
:2001C100F0900719E014F053907F000000EF30E60543902080035390DF00000043908000A3
:2001E100000053907F000000EF30E50543902080035390DF00000043908000000053907FA6
:20020100000000EF30E40543902080035390DF00000043908000000053907F000000EF30C9
:20022100E30543902080035390DF00000043908000000053907F000000EF30E205439020EF
:2002410080035390DF00000043908000000053907F000000EF30E10543902080035390DF66
:2002610000000043908000000053907F000000EF30E00543902080035390DF0000004390B9
:200281008000000053907F5390DF900719E07004C2CA8010C2CA75CBFF75CA9C85CBCD8551
:2002A100CACCD2CAD0D0D006D007D083D082D0E03253C0BF75AA0122900601E0900604F022
:2002C10022E582900725F090071BE0700122900617E0FFBF1000400790071E7401F022A243
:2002E100AFE433FFC2AF900615E02405FEE43406FD900725E08E828D83F0900617E004F0CD
:20030100900615E02401FEF0BE1005900615E4F0EF24FF92AF22900726E4F0A2AFE433FF7F
:20032100C2AF900617E06028900616E02405F582E43406F583E0900726F0900617E014F056
:20034100900616E02401FEF0BE1005900616E4F0EF24FF92AF900726E0F58222A2AFE433B9
:20036100FFC2AF900717E4F0900718F0900719F090071CE07026439020900001C0071217AE
:2003810054D0075390DF900600E0FE900603E0900728F08E82C007120411D007900001C0AD
:2003A10007121754D0075390F7EF24FF92AF90071CE060FA22E582900727F0900719E0FF01
:2003C100BFFF0280F6A2AFE433FFC2AF900717E02418FEE43406FD900727E08E828D83F07D
:2003E100900719E0FE04F0EE7010C2CA75CBFF75CA9C85CBCD85CACCD2CA900717E02401DF
:20040100FEF0BEFF05900717E4F0EF24FF92AF22E582900729F0E05403FF900728E0FEBE8C
:2004210001067D047E0080047D007E00ED42078F820203B6E58290072DF090072CE0FF7403
:20044100015FFEEF035401FDEF03035401FFEEC42354E0FE430640EDC454F0420690072A22
:20046100E0FDFB3395E05303C0E4CBC4540F6BCB540FCB6BCB30E30244F0EB420690072D35
:20048100E0FCFA3395E05302C0E4A2E7CA33CA33A2E7CA33CA33CA540330E10244FCEA423E
:2004A100068E82C007C005C0041203B6D00453043F8C821203B6D00553053F8D821203B681
:2004C100D007900604E06015EFC454F0FF90072BE0FE53060FEF42068E821203B60202B28F
:2004E1009000141217A990071BE070012275824D1203B6900604E0601E75825A1203B675C8
:2005010082401203B67582001203B67582001203B67582000203B67582331203B6758240EB
:200521001203B67582001203B67582000203B6123B8F12241D900617E0FFBF0400500302A8
:2005410005C2120317AF82900604E060067D077E0080047D037E00900730ED5FF0120317E3
:20056100E582FF3395E0FE900731E0FCA3E0FDEF2CFFEE3DFE900731EFF0EEA3F0120317B3
:20058100E582FF3395E0FE900733E0FCA3E0FDECC39FFFED9EFE900733EFF0EEA3F0120313
:2005A10017E582FF3395E0FE900735E0FCA3E0FDEF2CFFEE3DFE900735EFF0EEA3F0020579
:2005C1003690071DE070012290071BE070012290071DE4F090072FE0FF0F74035FF09007FF
:2005E1001AE0700302067590071AE4F0A2AFE433FFC2AF900731E4F0A3F0900733F0A3F037
:20060100900735F0A3F0900730F0900717E0900718F0900719E4F0C2CA4390085390F7EFF2
:2006210024FF92AF9000141217A990071BE0604475824D1203B6900604E0602075825A123D
:2006410003B67582401203B67582001203B67582001203B67582001203B6801875823312C4
:2006610003B67582401203B67582001203B67582001203B6900730E0FF90072EE0FEEFB54D
:200681000625900731E0F5F0A3E045F07019900733E0F5F0A3E045F0700D900735E0F5F00B
:2006A100A3E045F0700122900731E0FEA3E0FFC3EE9480EF6480947F50089007377480F011
:2006C100801CC3747F9E74808FF063F08095F05008900737747FF08005900737EEF090078D
:2006E10037E0FFFD3395E0FE900731E0FBA3E0FCEBC39DFDEC9EFE900731EDF0EEA3F09098
:200701000733E0FDA3E0FEC3ED9480EE6480947F500890073A7480F0801CC3747F9D7480A7
:200721008EF063F08095F0500890073A747FF0800590073AEDF090073AE0FEFC3395E0FD53
:20074100900733E0FAA3E0FBEAC39CFCEB9DFD900733ECF0EDA3F0900735E0FCA3E0FDC39B
:20076100EC94F8ED6480947F500890073D74F8F0801CC374079C74808DF063F08095F05005
:200781000890073D7407F0800590073DECF090073DE0FDFB3395E0FC900735E0F9A3E0FA6A
:2007A100E9C39BFBEA9CFC900735EBF0ECA3F0900730E0FC90072EF090072AEEF090072B95
:2007C100EDF090072CECF08F82020435E5A030E6067E017F0080047E007F00E5A030E7068E
:2007E1007C027D0080047C007D00EC4206EEFF24FC402FEF2F2F9007FB7302081B0208133C
:2008010002080B900740E4F0801D9007407401F080159007407402F0800D9007407403F0A1
:200821008005900740E4F0900740E0F58222E5B0C45401B401009200E433F58222E59030ED
:20084100E2067E017F0080047E007F00E59030E4067C027D0080047C007D00EC4206EEFF08
:2008610024FC4030EF2F2F90086C7302088D02088502087D9007417464F0801E90074174EC
:2008810050F080169007417428F0800E9007417414F080069007417464F0900741E0F582EA
:2008A10022E582900742F0E5A020E50475820122900742E0FFE06003BF02047582022275ED
:2008C10082002274305587C4540FF5822275820012237575820112237502181A75FF0075D3
:2008E100A15575A1AA75B2D875B38675A1FF9000071217A99007617403F090076214F08535
:2009010090821213389007617405F09007627402F08590821213389007617407F090076257
:200921007402F08590821213389007617403F090076214F08580821213389007617402F0BE
:2009410090076214F08580821213389007617402F0900762E4F085B082121338900761740A
:2009610006F09007627401F085A0821213389007617407F09007627401F085A08212133859
:200981009007617402F090076214F08590821213389007617404F090076203F08590821212
:2009A10013389007617404F09007627401F08590821213389007617404F09007627401F07B
:2009C10085B0821213389007617405F09007627401F085A0821213389007617406F0900746
:2009E10062E4F08590821213389007617406F09007627401F085C182121338E5C120E60B30
:200A010085088285098312004180129007617406F09007627402F085C082121338E5A03036
:200A2100E6067E017F0080047E007F00E5A030E7067C027D0080047C007D00EC4206EEFF0F
:200A410024FC402FEF2F2F900A4C73020A6C020A64020A5C900745E4F0801D900745740172
:200A6100F080159007457402F0800D9007457403F08005900745E4F0900745E0FF90060058
:200A8100F0E5B0C45401900744B40100E433F0900744E0900601F0E59030E2067D017E0055
:200AA10080047D007E00E59030E4067B027C0080047B007C00EB4205EDFE24FC4030EE2EEA
:200AC1002E900AC673020AE7020ADF020AD79007467464F0801E9007467450F08016900752
:200AE100467428F0800E9007467414F080069007467464F0900746E0FE900602F08E047DC3
:200B01000074D02CFC74073DFD7B00EE2EFEEB33FB900C91EEF0EBA3F08C828D83C0071285
:200B2100400EAD82D00790071FEDF0E5A020E5089007437401F08013EF6003BF02089007B7
:200B4100437402F08005900743E4F0900743E0900603F0758CF0758A60C28DD28CC2CA7577
:200B6100C90075CBFF75CA9C85CBCD85CACCC2CFE4F5A3F5A4F5A575A61075A727F5AAD23A
:200B810088C289D2A9D2ADD2E9D2A875A15575A1AA75EBC375EA7D43B10175A1FF74305525
:200BA10087C4540FFFFE24FC402DEE2E900BB173801780158002800890071C7401F080173C
:200BC10053C0BF9000321217A99000321217A943C04090071CE4F0D2AFA2AFE433FFC2AFF7
:200BE100900717E4F0900718F0900719F090071CE07035439020900001C007121754D0075C
:200C01005390DF900603E0FE900600E05403FDBE01067C047E0080047C007E00EC42058DCF
:200C210082C0071203B6D007900001C007121754D0075390F7EF24FF92AF90071CE060FA02
:200C410090C20075F001E4123D237464C0E0744CC0E07480C0E01241F81581158115817597
:200C6100820012237575820112237512181A900601E0900604F090071B740455B0F09007AA
:200C81001A7401F090071EE4F02275FF0075A15575A1AA75B2D875B38675A1FF900007121F
:200CA10017A99007617403F090076214F08590821213389007617405F09007627402F085DE
:200CC10090821213389007617407F09007627402F08590821213389007617403F090076296
:200CE10014F08580821213389007617402F090076214F08580821213389007617402F090DE
:200D01000762E4F085B0821213389007617406F09007627401F085A0821213389007617451
:200D210007F09007627401F085A0821213389007617402F090076214F0859082121338907A
:200D410007617404F090076203F08590821213389007617404F09007627401F0859082127B
:200D610013389007617404F09007627401F085B0821213389007617405F09007627401F096
:200D810085A0821213389007617406F0900762E4F08590821213389007617406F0900762D0
:200DA1007401F085C182121338E5C120E60B85088285098312004180129007617406F090FA
:200DC10007627402F085C082121338E5A030E6067E017F0080047E007F00E5A030E7067CE1
:200DE100027D0080047C007D00EC4206EEFF24FC402FEF2F2F900DFA73020E1A020E1202A1
:200E01000E0A90074BE4F0801D90074B7401F0801590074B7402F0800D90074B7403F080EC
:200E21000590074BE4F090074BE0FF900600F0E5B0C4540190074AB40100E433F090074A83
:200E4100E0900601F0E59030E2067D017E0080047D007E00E59030E4067B027C0080047B9B
:200E6100007C00EB4205EDFE24FC4030EE2E2E900E7473020E95020E8D020E8590074C744B
:200E810064F0801E90074C7450F0801690074C7428F0800E90074C7414F0800690074C74FD
:200EA10064F090074CE0FE900602F08E047D0074D02CFC74073DFD7B00EE2EFEEB33FB9026
:200EC1000C91EEF0EBA3F08C828D83C00712400EAD82D00790071FEDF0E5A020E508900711
:200EE100497401F08013EF6003BF02089007497402F08005900749E4F0900749E0900603BD
:200F0100F0758CF0758A60C28DD28CC2CA75C90075CBFF75CA9C85CBCD85CACCC2CFE4F55D
:200F2100A3F5A4F5A575A61075A727F5AAD288C289D2A9D2ADD2E9D2A875A15575A1AA7559
:200F4100EBC375EA7D43B10175A1FF74305587C4540FFFFE24FC402DEE2E900F5F738017A7
:200F610080158002800890071C7401F0801753C0BF9000321217A99000321217A943C040E5
:200F810090071CE4F0D2AFA2AFE433FFC2AF900717E4F0900718F0900719F090071CE070AC
:200FA10035439020900001C007121754D0075390DF900603E0FE900600E05403FDBE010694
:200FC1007C047E0080047C007E00EC42058D82C0071203B6D007900001C007121754D0073D
:200FE1005390F7EF24FF92AF90071CE060FA90C20075F001E4123D237464C0E0744CC0E0F0
:201001007480C0E01241F815811581158175820012237575820112237512181A900601E030
:20102100900604F090071B740455B0F090071A7401F090071EE4F0746DC0E0744CC0E07412
:2010410080C0E01241F815811581158190071EE07002F5FF90071BE0701590071B740455D1
:20106100B0F0E0600A90071A7401F090071DF0123D9A123B8F12241D900617E0FFBF040064
:201081005003021105120317AF82900604E060067D077E0080047D037E00900751ED5FF0FF
:2010A100120317E582FF3395E0FE900752E0FCA3E0FDEF2CFFEE3DFE900752EFF0EEA3F026
:2010C100120317E582FF3395E0FE900754E0FCA3E0FDECC39FFFED9EFE900754EFF0EEA35F
:2010E100F0120317E582FF3395E0FE900756E0FCA3E0FDEF2CFFEE3DFE900756EFF0EEA3DE
:20110100F002107990071DE0700302131690071BE0700302131690071DE4F0900750E0FFA3
:201121000F74035FF090071AE070030211BC90071AE4F0A2AFE433FFC2AF900752E4F0A349
:20114100F0900754F0A3F0900756F0A3F0900751F0900717E0900718F0900719E4F0C2CAAB
:201161004390085390F7EF24FF92AF9000141217A990071BE0604475824D1203B690060411
:20118100E0602075825A1203B67582401203B67582001203B67582001203B6758200120340
:2011A100B680187582331203B67582401203B67582001203B67582001203B6900751E0FF9E
:2011C10090074FE0FEEFB50627900752E0F5F0A3E045F0701B900754E0F5F0A3E045F070B0
:2011E1000F900756E0F5F0A3E045F07003021316900752E0FEA3E0FFC3EE9480EF64809462
:201201007F50089007587480F0801CC3747F9E74808FF063F08095F05008900758747FF03E
:201221008005900758EEF0900758E0FFFD3395E0FE900752E0FBA3E0FCEBC39DFDEC9EFED7
:20124100900752EDF0EEA3F0900754E0FDA3E0FEC3ED9480EE6480947F500890075B748016
:20126100F0801CC3747F9D74808EF063F08095F0500890075B747FF0800590075BEDF090B3
:20128100075BE0FEFC3395E0FD900754E0FAA3E0FBEAC39CFCEB9DFD900754ECF0EDA3F018
:2012A100900756E0FCA3E0FDC3EC94F8ED6480947F500890075E74F8F0801CC374079C7432
:2012C100808DF063F08095F0500890075E7407F0800590075EECF090075EE0FDFB3395E035
:2012E100FC900756E0F9A3E0FAE9C39BFBEA9CFC900756EBF0ECA3F0900751E0FC90074FF9
:20130100F090072AEEF090072BEDF090072CECF08F8212043590071EE0600302104D9007B5
:171321001DE0600302104D900617E0600302104D900719E002104DB8
:104C6400537461727475700A0052656164790A0044
:20133800E582900763F090076474C4F07400A3F07440A3F090076774BAF07400A3F07440FC
:20135800A3F090076A74BCF07400A3F07440A3F090076D74BEF07400A3F07440A3F0900768
:201378007074C5F07400A3F07440A3F090077374BBF07400A3F07440A3F090077674BDF0C9
:201398007400A3F07440A3F090077974BFF07400A3F07440A3F0900762E0FF24F9500122FE
:2013B800EF2F2F9013BF730213D40214540214D402152A0215A902162A0216A9900763E0D8
:2013D800FFFE8EF005F07401800225E0D5F0FBF452C6EF75F003A4FFAEF02464F582EE3404
:2013F80007F583E0FBA3E0FCA3E0FD8B828C838DF0124C44FA900761E0F989F005F0740193
:20141800800225E0D5F0FBF4F952028B828C838DF0EA12418FEF2470F582EE3407F583E04C
:20143800FDA3E0FEA3E0FF8D828E838FF0124C4452018D828E838FF0E902418F900763E0CC
:20145800FFFE8EF005F07401800225E0D5F0FBF452C6EF75F003A4FFAEF02464F582EE3483
:2014780007F583E0FBA3E0FCA3E0FD8B828C838DF0124C44FA900761E0F989F005F0740112
:20149800800225E0D5F0FBF9F452028B828C838DF0EA12418FEF2470F582EE3407F583E0CC
:2014B800FDA3E0FEA3E0FF8D828E838FF0124C4442018D828E838FF0E902418F900763E05C
:2014D800FFFE8EF005F07401800225E0D5F0FBF452C6EF75F003A42464F582740735F0F52D
:2014F80083E0FDA3E0FEA3E0FF8D828E838FF0124C44FC900761E0FB8BF005F074018002FA
:2015180025E0D5F0FBF442048D828E838FF0EC02418F900763E0FFFE8EF005F07401800216
:2015380025E0D5F0FB42C6EF75F003A4FFAEF02464F582EE3407F583E0FBA3E0FCA3E0FDB4
:201558008B828C838DF0124C44FA900761E0F989F005F07401800225E0D5F0FBF4F9520202
:201578008B828C838DF0EA12418FEF2470F582EE3407F583E0FDA3E0FEA3E0FF8D828E8353
:201598008FF0124C4452018D828E838FF0E902418F900763E0FFFE8EF005F07401800225FF
:2015B800E0D5F0FB42C6EF75F003A4FFAEF02464F582EE3407F583E0FBA3E0FCA3E0FD8BCE
:2015D800828C838DF0124C44FA900761E0F989F005F07401800225E0D5F0FBF942028B8204
:2015F8008C838DF0EA12418FEF2470F582EE3407F583E0FDA3E0FEA3E0FF8D828E838FF061
:20161800124C44FCE9F452048D828E838FF0EC02418F900763E0FFFE8EF005F07401800243
:2016380025E0D5F0FB42C6EF75F003A4FFAEF02464F582EE3407F583E0FBA3E0FCA3E0FDB3
:201658008B828C838DF0124C44FA900761E0F989F005F07401800225E0D5F0FBF9F4520201
:201678008B828C838DF0EA12418FEF2470F582EE3407F583E0FDA3E0FEA3E0FF8D828E8352
:201698008FF0124C4442018D828E838FF0E902418F900763E0FFFE8EF005F074018002250E
:2016B800E0D5F0FB42C6EF75F003A4FFAEF02464F582EE3407F583E0FBA3E0FCA3E0FD8BCD
:2016D800828C838DF0124C44FA900761E0F989F005F07401800225E0D5F0FBF942028B8203
:2016F8008C838DF0EA12418FEF2470F582EE3407F583E0FDA3E0FEA3E0FF8D828E838FF060
:20171800124C4442018D828E838FF0E902418FAF83E58290077CF0EFA3F010990280FB909E
:20173800077CE0FEA3E0FF8E998E828F832210980280FBAE997F008E828F8322AF83E5827B
:2017580090077EF0EFA3F090077EE0FEA3E0FFEE4F603505A105A105A105A105A105A105BA
:20177800A105A105A105A105A105A105A105A105A105A105A105A105A11EBEFF011F900756
:201798007EEEF0EFA3F080C790077EEEF0EFA3F022AF83E582900780F0EFA3F0900780E05C
:2017B800FEA3E0FFEE4F601D9003E8C007C006121754D006D0071EBEFF011F900780EEF0B5
:0E17D800EFA3F080DF900780EEF0EFA3F02289
:0500B30090099DE4F03E
:2017E600E582900989F0E0FF75F003A4FDAEF02483F582EE3409F583E4F0ED2483FDEE349C
:2018060009FE8D828E83A3E4F0EF600475E5002275E40022C2EA75E28075E3009024477490
:2018260048F090244CE4F0A3F090244E04F0E4A3F0F5D4F5D675E28975D24075D8FF758258
:20184600001217E67582011217E675E10322E58290098AF0E5E35480FFE0547F4FF5E322E0
:20186600E58290098BF0E0600753E2BF53D27F2243E24022E58290098CF09007827408F05E
:2018860075820012185475820112186690098CE0FFE0701374FB55E44402F5E490000F1266
:2018A60017A953E4FD8014BF011174FB55E54402F5E590000F1217A953E5FD9000FA1217A7
:2018C60054C2D822E58290098DF0E075F003A42483FE740935F0FF8E828F83E0FDBD010086
:2018E60050078E828F837401F090098DE0FF7049E5DB20E303021988E5E420E035E5DB30EF
:20190600E21AEF75F003A42483FD740935F0FE8D828E83A3A3E4F043E4048016EF75F00334
:20192600A42483FD740935F0FE8D828E83A3A37401F043E40175820022BF0146E5DB30E7D0
:2019460041E5E520E035E5DB30E61AEF75F003A42483FD740935F0FE8D828E83A3A3E4F0D8
:2019660043E5048016EF75F003A42483FE740935F0FF8E828F83A3A37401F043E501758271
:20198600002275821622E58290098FF0E075F003A42483FE740935F0FF8E828F83A3E0F5A5
:2019A60082C007C006121854D006D0078E828F83A3A3E0F582021866E582900993F090098C
:2019C60090E0FF8FD48FD6900994E4F0A3F0900993E0FEC4540FFDBD0103ED8001E4F524DC
:2019E600E4BD090104FB900991E0F9A3E0FA8ED5C2D97521C8752200E5214522602C20D9D2
:201A060029900001C007C006C005C003C002C001121754D001D002D003D005D006D00715E4
:201A26002174FFB52102152280CE75D50020D9047582FE2220D903021B3A30DE04758200F5
:201A460022E5D9540FF523740EB5230474018001E4F521600774204523F58222740AB52385
:201A66000474018001E4F8603FE94A700A74204523F52485248222C00389038A04C3EB94BD
:201A8600FFEC94FFD003500519B9FF011AC003900994E024FFFBA3E034FFFC900994EBF006
:201AA600ECA3F0D003021B3DE524700BEB7031BD0D028003021B3630DE0475820022740221
:201AC600B5230475820022E5217003E8600774204523F58222E523605E74204523F5822253
:201AE60030DE0475820022EF600D740BB5230474018001E4FC800B7403B523047401800154
:201B0600E4FCEC600475820022E5217003E8600774204523F582227403B523028019740BB0
:201B2600B523028012E523600E74204523F582227582FE2275D8FF90000FC007C006C005D4
:201B4600C003C002C001121754D001D002D003D005D006D007900994E02401F0A3E03400EB
:201B6600F0900994E0F8A3E0FCC3E894C8EC940050030219F475822022AF83E58290099BFC
:201B8600F0EFA3F074B4C0E0744CC0E07480C0E01241F815811581158190099BE0FEA3E06F
:201BA600FF9009A0EEF0EFA3F0900996E0FBA3E0FCA3E0FD9000C8C007C006C005C004C050
:201BC60003121754D003D004D005D006D007EB4C600E8B828C838DF0E412418FA312418FCD
:201BE60075D708900990E4F09009917410F07427A3F07582D0C007C006C005C004C0031210
:201C060019BEAA82D003D004D005D006D007EA60038A8222C006C00775D6D075D4D075D70A
:201C260001900107E0FA7900900106E0F87F004201EF420289258A2690099EE525F0E526B4
:201C4600A3F0D007D006E52545267003021F09EE4F7003021F09900100E0FF20E703021DB9
:201C6600A4C005C004C003C025C02674C6C0E0744CC0E07480C0E01241F8E58124FBF5818F
:201C8600D003D004D00590099EE0FEA3E0FF4E7003021D9E90012CC007C006C005C004C01A
:201CA60003121754900990E5D4F09009917410F07427A3F07582901219BEAA82D003D004BD
:201CC600D005D006D007EA60038A8222A9D17A00C3E99EEA9F5006A9D17A0080048E018F4E
:201CE6000289067F0090099EE0F8A3E0FAE8C39EF8EA9FFA90099EE8F0EAA3F0EB4C602437
:201D06008B828C838DF0124C44F8A3124C44FAEE28FEEF3AFF8B828C838DF0EE12418FA303
:201D2600EF12418F9009A0E0FEA3E0FF7A00C3EA995018EA2EF527E43FF5288A8275830093
:201D4600E0852782852883F00A80E39009A0E0FEA3E0FF9009A0E92EF0E43FA3F0AED17F55
:201D660000C005C004C003C006C00774E2C0E0744CC0E07480C0E01241F8E58124FBF58154
:201D8600D003D004D005E5D1600E900782E0FFC3E5D19F4003021C8C75D700021F09C00565
:201DA600C004C003C025C02674F5C0E0744CC0E07480C0E01241F8E58124FBF581D003D0E5
:201DC60004D00590099EE0FEA3E0FF4E7003021F099000C8C007C006C005C004C003121748
:201DE60054D003D004D005D006D007900782E0F97A00C3EE99EF9A920150048E018F028991
:201E0600D79009A0E0FEA3E0FFE5D72EFEE43FFF9009A0EEF0EFA3F08E828F83A3E0FABA50
:201E2600094D90099DE0600679007A00800479017A0090099DE9F08E828F83E9F090099D1F
:201E4600E0FF7E007A00C005C004C003C007C006C001C0027411C0E0744DC0E07480C0E02F
:201E66001241F8E58124F9F581D003D004D005AED77F00C005C004C003C006C0077427C064
:201E8600E0744DC0E07480C0E01241F8E58124FBF581900990E5D6F09009917410F0742714
:201EA600A3F07582101219BEAF82D003D004D005EF60038F8222AED77F0090099EE0F9A3B0
:201EC600E0FAE9C39EF9EA9FFA90099EE9F0EAA3F0EB4C7003021DC98B828C838DF0124C46
:201EE60044FEA3124C44FFA9D77A00E92EFEEA3FFF8B828C838DF0EE12418FA3EF12418F42
:201F0600021DC99000C8121754E5D760047F9080027F1090099074C0F09009917410F0745F
:201F260027A3F08F821219BEE582FF60038F8222E5D77003F58222E5D17003F5822275826A
:201F46001722AF83E5829009A3F0EFA3F09009A2E0FFFD7E00C007C006C005C005C0067415
:201F660039C0E0744DC0E07480C0E01241F8E58124FBF581D005D006D0079009A3E0FBA30B
:201F8600E0FC7A00C3EA9F501EC005C0068A007901EA2BF582E43CF583E49388828983F0FB
:201FA6000AD006D00580DDC005C0067450C0E0744DC0E07480C0E01241F8E58124FBF581DF
:201FC600229007827408F07463C0E0744DC0E07480C0E01241F81581158115819009A2742C
:201FE60008F0904C74121F4890099674A5F07409A3F0E4A3F0900999F07402A3F090078316
:20200600121B7FE582FF60038F82227478C0E0744DC0E07480C0E01241F815811581158184
:2020260090078AE0900782F0904C7AE493FF9009A5E0FDA3E0FE7C00C3ED9FEE9C501974F6
:20204600A5C0E0744DC0E07480C0E01241F81581158115817582172275820022E5829009EA
:20206600A7F09009A27408F0904C8C121F489009A7E0FF900102F0900996E4F0A3F0A3F070
:20208600900999F0A3F0900000C007121B7FAE82D007EE60038E82228F057E00C007C0055A
:2020A600C00674CFC0E0744DC0E07480C0E01241F8E58124FBF581D0078F82121854900040
:2020C600641217A975820022E5829009A8F09009A27408F0904C9C121F489009A8E09001C9
:2020E60002F0900996E4F0A3F0A3F0900999F0A3F0900000021B7F9009A27408F0904C94C7
:20210600121F48900996E4F0A3F0A3F0900999F07402A3F0900783021B7FAF83E582900904
:20212600AEF0EFA3F09009AEE0FEA3E0FF8E828F83E07C0024FEFDEC34FFA2E713CD13CDCD
:202146008E828F83A3E0FCBC03028004758200229009ABE0F52BA3E0F52C9009A9E0F52F4C
:20216600A3E0F530852F2985302A7800C3E89D5071C005AC2BAD2CEC24FFF52DED34FFF5B9
:202186002E88037D00C3EB952DED952ED0055052C00588037C00EB2BFBEC33FC74032BFAD8
:2021A600E43CFDEA2EFAED3FFD8A828D83E0D005600FE82529F582E4352AF583743FF080F6
:2021C6001EE8252FF9E43530FA74022BFBE43CFCEB2EF582EC3FF583E0FC89828A83F0088C
:2021E600808AE8252FF582E43530F583E4F07F009009ADE0FE0E900C7DEDF0EFA3F0900CC2
:202206007FEEF0900C807434F0900C817456F0900C82E52FF0E530A3F0758205123E447501
:20222600820122AF83E5829009B0F0EFA3F09009B0E0FEA3E0FF7C007D008E828F83E0FB00
:202246007A00C3EC9BED64808AF063F08095F0503CEC2EF582ED3FF583E0FB7A00C007C074
:2022660006C005C004C003C00274DFC0E0744DC0E07480C0E01241F8E58124FBF581D00442
:20228600D005D006D0070CBC00B00D80AD74E7C0E0744DC0E07480C0E01241F8158115819D
:2022A6001581229009A27408F0904C7C121F4890099674B2F07409A3F0E4A3F0900999F0FA
:2022C6007402A3F0900783121B7FE582FF60038F8222904C82E493FF9009B2E0FDA3E0FEB0
:2022E6007C00C3ED9FEE9C500475821722900785E0FF7E00900786E0FCE42FFFEC3EFE90C3
:2023060009A27408F0904C7CC007C006121F48D006D0078F05900106EDF08E07900107EF71
:20232600F090099674B2F07409A3F0E4A3F0900999F07402A3F0900783121B7FE582FF6024
:20234600038F8222758200229009A27408F0904C84121F4890099674B4F07409A3F0E4A3CA
:20236600F0900999F07402A3F0900783021B7FE582900A16F0E0FF75F010A4FDAEF024F6D2
:20238600F582EE3409F583E4F0A3F0A3F0A3F0ED24F6FDEE3409FE8D828E83A3A3A3A3E4D3
:2023A600F0A3F0A3F0A3F074082DF582E43EF583E4F0A3F0A3F0A3F0740C2DF582E43EF5EC
:2023C60083E4F0A3F0A3F0A3F07E00EE75F008A424B6FC740935F0FD74012CFAE43DFB8AB4
:2023E600828B83E0B507298C828D83E4F08A828B83F08C828D83A3A3F08C828D83A3A3A32B
:20240600F08C828D83A3A3A3A3F0A3F0A3F0A3F00EBE080040B5227F00EF75F008A4FDAE5E
:20242600F024B6FBEE3409FC8B828C83E070030225B4ED24B6FDEE3409FE8D828E83A3E0D0
:20244600FC90098EE4F08C82C007C006C00512198CD005D006D0078D828E83A3A3A3E0FEFF
:20246600747F5E4490FDEE30E7067CC07E0080047C007E00900990ECF0900991E4F0A3F05B
:202486008D82C0071219BEE582D00760030225B4EF75F008A424B6FD740935F0FE74032DE0
:2024A600FBE43EFC8B828C83E0FA6302808B828C83EAF0900A17E5D1F0E0FAE07003022581
:2024C600B4B2968A3175320074042DF8E43EFA88828A83E0F98B828C83E0FB53037F8D8214
:2024E6008E83A3E075F010A4FEADF024F6F582ED3409F583E0F533EE24F6FEED3409FD8E98
:20250600828D83A3A3A3A3E0F53474082EF582E43DF583E0FC740C2EF582E43DF583E0FE5C
:20252600900C85E531F0E532A3F0900C87E9F0900C88EFF0900C89EBF0900C8A7400F074C7
:2025460000A3F0900C8CE533F0900C8DE534F0900C8EECF0900C8FEEF0758204C007C002ED
:20256600C000123F19D000D002D00788828A83E0F8A3E0FAA3E0FEA3E0FDB80231BA002E72
:20258600BE002BBD0028900000E0F582C0071202C2900001E0F5821202C2900002E0F5823C
:2025A6001202C2900003E0F5821202C2D0070FBF0800500302241F22AF83E582900A1BF0DA
:2025C600EFA3F0900A1DE4F0A3F0900A1FF0900A20F0900A1AE075F008A424B6FE740935D3
:2025E600F0FF900A1BE0F53BA3E0F53CAA3BAB3C900A18E0F539A3E0F53A900A1DE0F5356E
:20260600A3E0F536C3E5359539E536953A400122C006C007E535253BF582E536353CF5838C
:20262600E0FF900A2174FC5FF074035FF535900A22F0900A23E4F0A3F0A3F0A3F07403B519
:2026460035028006D007D006800BD007D006900A22E53504F0900A1DE0F535A3E0F5369009
:202666000A22E0F537753800C3E5389537505BC006C007AE35AF360EBE00010FA83879008E
:20268600E82EFEE93FFFEE2AF582EF3BF583E0F8E4F9FEFFE538C40354F8FD8DF005F080F7
:2026A6000CE828F8E933F9EE33FEEF33FFD5F0F1900A23E048F0A3E049F0A3E04EF0A3E020
:2026C6004FF00538D007D006809E900A1FE0FD900A21E0FCE4BCC00104F53879008D35753E
:2026E6003600E5386008753D01753E008005E4F53DF53EC006C007E535C3953DF8E5369501
:202706003EFF89047E00C3EC98EE64808FF063F08095F0D007D0065030C007C006C005C03C
:2027260003C002C00174E9C0E0744DC0E07480C0E01241F8158115811581D001D002D00398
:20274600D005D006D007098094900A21E0FDBD04028063BD080302299CBD1403022D45BD02
:202766001803022E2DBD2403022D7FBD2803022E67BD3403022DB9BD4403022DF3BD6403A4
:20278600022F22BD740302300ABD8003022F5CBD8403023044BD9003022F96BD940302304C
:2027A6007EBDA003022EA1BDB003022FD0BDC003022EE20230B7900A23E0F53FA3E0F540EF
:2027C600A3E0F541A3E0F542C3E54094FFE5419400E5429400400AE4F53F7540FFF541F54F
:2027E60042C007C006C003C00274EEC0E0744DC0E07480C0E01241F8158115811581D002A9
:20280600D003D006D0077401B53F0D14B54009B54106B542030228DD7407B53F0CE4B54059
:2028260008B54105B54202805E7408B53F0CE4B54008B54105B5420280257409B53F0CE461
:20284600B54008B54105B542028064E4B53F0DB5410AB54207F4B5400302290402293DC077
:2028660007C006C003C00274FAC0E0744DC0E07480C0E01241F8158115811581D002D0034B
:20288600D006D007022974C007C006C003C00274FFC0E0744DC0E07480C0E01241F81581EB
:2028A60015811581D002D003D006D007022974C007C006C003C002740FC0E0744EC0E074EA
:2028C60080C0E01241F8158115811581D002D003D006D007022974C007C006C003C002744E
:2028E60016C0E0744EC0E07480C0E01241F8158115811581D002D003D006D0078070C00710
:20290600C006C003C002900A23E0C0E0A3E0C0E0A3E0C0E0A3E0C0E0742FC0E0744EC0E01B
:202926007480C0E01241F8E58124F9F581D002D003D006D0078037C007C006C003C002900E
:202946000A23E0C0E0A3E0C0E0A3E0C0E0A3E0C0E07446C0E0744EC0E07480C0E01241F8C0
:20296600E58124F9F581D002D003D006D007C007C006C003C00274E7C0E0744DC0E07480A4
:20298600C0E01241F8158115811581D002D003D006D0070230FE900A20E07055900A23E006
:2029A600F53FA3E0F540A3E0F541A3E0F5427402B53F0CE4B54008B54105B5420280028065
:2029C60013C007C006C003C0021202B2D002D003D006D0078E828F83A3A3A3A3E53FF0E50D
:2029E60040A3F0E541A3F0E542A3F0900A207401F0C007C006C003C0027456C0E0744EC06E
:202A0600E07480C0E01241F8158115811581D002D003D006D007900A23E0F53FA3E0F54054
:202A2600A3E0F541A3E0F542C37438953FE49540E49541E495425003022CF0E53F240B8365
:202A4600F582E53F243D83F583E473C3EB133B638BB3DB032BF0F0F0F0F0F0F0F0F0F0F02C
:202A6600F0F0F0F0F0F0F0F0F0F0F0F0F0F0F0F0F0F0F0F0F0F0F0F0F0F0F0537BA2F0F0B0
:202A8600F0F0F0C92A2A2B2B2B2B2B2B2C2C2C2C2C2C2C2C2C2C2C2C2C2C2C2C2C2C2C2CD1
:202AA6002C2C2C2C2C2C2C2C2C2C2C2C2C2C2C2C2C2C2C2C2C2C2C2C2C2C2C2C2CC007C08D
:202AC60006C003C002745DC0E0744EC0E07480C0E01241F8158115811581D002D003D00676
:202AE600D007022D1DC007C006C003C0027465C0E0744EC0E07480C0E01241F815811581B5
:202B06001581D002D003D006D007022D1DC007C006C003C002746DC0E0744EC0E07480C0D2
:202B2600E01241F8158115811581D002D003D006D007022D1DC007C006C003C0027473C04B
:202B4600E0744EC0E07480C0E01241F8158115811581D002D003D006D007022D1DC007C067
:202B660006C003C002747CC0E0744EC0E07480C0E01241F8158115811581D002D003D006B6
:202B8600D007022D1DC007C006C003C0027485C0E0744EC0E07480C0E01241F815811581F4
:202BA6001581D002D003D006D007022D1DC007C006C003C002748DC0E0744EC0E07480C012
:202BC600E01241F8158115811581D002D003D006D007022D1DC007C006C003C0027496C088
:202BE600E0744EC0E07480C0E01241F8158115811581D002D003D006D007022D1DC007C0C7
:202C060006C003C002749DC0E0744EC0E07480C0E01241F8158115811581D002D003D006F4
:202C2600D007022D1DC007C006C003C00274B3C0E0744EC0E07480C0E01241F81581158125
:202C46001581D002D003D006D007022D1DC007C006C003C00274CAC0E0744EC0E07480C034
:202C6600E01241F8158115811581D002D003D006D007022D1DC007C006C003C00274CCC0B1
:202C8600E0744EC0E07480C0E01241F8158115811581D002D003D006D007807BC007C00671
:202CA600C003C00274CEC0E0744EC0E07480C0E01241F8158115811581D002D003D006D059
:202CC600078054C007C006C003C00274D0C0E0744EC0E07480C0E01241F81581158115811A
:202CE600D002D003D006D007802DC007C006C003C002C03FC040C041C0427446C0E0744E9F
:202D0600C0E07480C0E01241F8E58124F9F581D002D003D006D007C007C006C003C002745D
:202D2600E7C0E0744DC0E07480C0E01241F8158115811581D002D003D006D0070230FEC0C2
:202D460007C006C003C002900A23E0C0E0A3E0C0E0A3E0C0E0A3E0C0E074D6C0E0744EC009
:202D6600E07480C0E01241F8E58124F9F581D002D003D006D0070230FEC007C006C003C003
:202D860002900A23E0C0E0A3E0C0E0A3E0C0E0A3E0C0E074E7C0E0744EC0E07480C0E01282
:202DA60041F8E58124F9F581D002D003D006D0070230FEC007C006C003C002900A23E0C0EA
:202DC600E0A3E0C0E0A3E0C0E0A3E0C0E074F8C0E0744EC0E07480C0E01241F8E58124F9D4
:202DE600F581D002D003D006D0070230FEC007C006C003C002900A23E0C0E0A3E0C0E0A3C0
:202E0600E0C0E0A3E0C0E0740AC0E0744FC0E07480C0E01241F8E58124F9F581D002D0030B
:202E2600D006D0070230FEC007C006C003C002900A23E0C0E0A3E0C0E0A3E0C0E0A3E0C0D7
:202E4600E074F8C0E0744EC0E07480C0E01241F8E58124F9F581D002D003D006D0070230C2
:202E6600FEC007C006C003C002900A23E0C0E0A3E0C0E0A3E0C0E0A3E0C0E0740AC0E07404
:202E86004FC0E07480C0E01241F8E58124F9F581D002D003D006D0070230FEC007C006C096
:202EA60003C002900A23E0C0E0A3E0C0E0A3E0C0E0A3E0C0E0741CC0E0744FC0E07480C05A
:202EC600E01241F8E58124F9F581D002D003D006D007900A1FE02401F00230FEC007C0060B
:202EE600C003C002900A23E0C0E0A3E0C0E0A3E0C0E0A3E0C0E07432C0E0744FC0E0748004
:202F0600C0E01241F8E58124F9F581D002D003D006D007900A1FE014F00230FEC007C0061B
:202F2600C003C002900A23E0C0E0A3E0C0E0A3E0C0E0A3E0C0E07446C0E0744FC0E07480AF
:202F4600C0E01241F8E58124F9F581D002D003D006D0070230FEC007C006C003C002900A59
:202F660023E0C0E0A3E0C0E0A3E0C0E0A3E0C0E07454C0E0744FC0E07480C0E01241F8E5B0
:202F86008124F9F581D002D003D006D0070230FEC007C006C003C002900A23E0C0E0A3E0C3
:202FA600C0E0A3E0C0E0A3E0C0E07463C0E0744FC0E07480C0E01241F8E58124F9F581D0A3
:202FC60002D003D006D0070230FEC007C006C003C002900A23E0C0E0A3E0C0E0A3E0C0E0A4
:202FE600A3E0C0E07473C0E0744FC0E07480C0E01241F8E58124F9F581D002D003D006D09B
:20300600070230FEC007C006C003C002900A23E0C0E0A3E0C0E0A3E0C0E0A3E0C0E07484C3
:20302600C0E0744FC0E07480C0E01241F8E58124F9F581D002D003D006D0070230FEC00766
:20304600C006C003C002900A23E0C0E0A3E0C0E0A3E0C0E0A3E0C0E07495C0E0744FC0E06D
:203066007480C0E01241F8E58124F9F581D002D003D006D0070230FEC007C006C003C002DE
:20308600900A23E0C0E0A3E0C0E0A3E0C0E0A3E0C0E074A4C0E0744FC0E07480C0E0124182
:2030A600F8E58124F9F581D002D003D006D0078047A9377C008D007D00C007C006C003C08A
:2030C60002900A23E0C0E0A3E0C0E0A3E0C0E0A3E0C0E0C001C004C000C00574B6C0E074FA
:2030E6004FC0E07480C0E01241F8E58124F5F581D002D003D006D007900A22E0FD7C000D93
:20310600BD00010C900A1DE0F8A3E0F9ED28F8EC39F9900A1DE8F0E9A3F0022600E582907F
:203126000A27F0E075F008A424B6FE740935F0FF74022EFEE43FFF8E828F83E0FD7C00C0FF
:2031460007C006C005C00474F6C0E0744FC0E07480C0E01241F8E58124FBF5819009A2741D
:2031660008F0904CA4121F48D006D0078E828F83E0900104F09009967428F0740AA3F0E474
:20318600A3F0900999F0A3F0900783C007C006121B7F9009A27408F0904CAC121F48D00610
:2031A600D0078E828F83E0900104F07F00900106EFF09001077402F09009967428F0740A7F
:2031C600A3F0E4A3F0900999F07402A3F0900783121B7FE582FF60038F82227E007F009065
:2031E6000A28E0FCA3E0FDC3EE9CEF9D5036EE2483F582EF3407F583E0FD7C00C007C00648
:20320600C005C00474DFC0E0744DC0E07480C0E01241F8E58124FBF581D006D0070EBE0078
:20322600BE0F80BB74E7C0E0744DC0E07480C0E01241F8158115811581900A28E0FEA3E060
:20324600FF900A27E0FD75F008A424B6FB740935F0FC8B828C83A3A3E0FA8B828C83A3E06C
:20326600FC900C7DEEF0EFA3F0900C7FEDF0900C80EAF0900C81ECF0900C827483F074076C
:20328600A3F0758207C005123E44D005900A28E0FEA3E0FF900A18EEF0EFA3F0900A1AED94
:2032A600F09007831225BE75820022900A2AE0FEA3E0FF8E828F83A3A3E0FD7C00C007C084
:2032C60006C005C004741BC0E07450C0E07480C0E01241F8E58124FBF581D006D0078E822F
:2032E6008F83A3A3A3A3A3E0FD7C00C007C006C005C0047429C0E07450C0E07480C0E012D1
:2033060041F8E58124FBF581D006D00774062EF582E43FF583E0FD7C00C007C006C005C0A1
:20332600047435C0E07450C0E07480C0E01241F8E58124FBF581D006D00774072EF582E44B
:203346003FF583E0FF7E00C007C0067445C0E07450C0E07480C0E01241F8E58124FBF5812F
:2033660022AF83E582900A2EF0EFA3F0900A2EE0FEA3E0FF8E828F83A3A3E0FF7E00C0079E
:20338600C006745EC0E07450C0E07480C0E01241F8E58124FBF581900A2CE0FEA3E0FF8EFD
:2033A600828F83A3A3E0FDFB53030F7C00EDC4540FFD7A008E828F83A3A3A3E0F853000FA4
:2033C6007900C007C006C003C004C005C002C000C0017473C0E07450C0E07480C0E0124180
:2033E600F8E58124F7F581D006D0078E828F83A3A3A3A3E0FD7C00C007C006C005C004749A
:2034060082C0E07450C0E07480C0E01241F8E58124FBF581D006D00774062EF582E43FF562
:2034260083E0FF7E00C007C0067499C0E07450C0E07480C0E01241F8E58124FBF5812222EA
:20344600E582900A30F0900A31E4F0900A30E0FFFEFD75F003A4F54385F0448F4875470072
:20346600900064C007C006C0051217A99000641217A985488212237585488212187AD005A7
:20348600D006D0077800900001C007C006C005C0001217A9D000D005D006D0078F82C00762
:2034A600C006C005C0001218CAE582D000D005D006D007600608B8640040CBB86441C00557
:2034C6008F82C007C006C0051217E6D005D006D0078F007D00C007C006C005C000C005749B
:2034E600A9C0E07450C0E07480C0E01241F8E58124FBF581D005D006D007D005023B7DC06E
:203506000590098EE4F08E82C007C006C00512198CD005D0068E007D00C006C005C000C0CB
:203526000574CCC0E07450C0E07480C0E01241F8E58124FBF581D005121FC7AD82D006D0C0
:2035460007900A31EDF0EDD0056003023B0CC005900787E0F87D00C007C006C005C000C03E
:203566000574E6C0E07450C0E07480C0E01241F8E58124FBF581D00590078AE0F87D00C0FD
:2035860005C000C00574F7C0E07450C0E07480C0E01241F8E58124FBF581D005D006EE7544
:2035A600F010A4F8ADF024F6F545ED3409F54690078BE0F97A007B007C008545828546830D
:2035C600E9F0EAA3F0EBA3F0ECA3F0E824F6F8ED3409FD740428F545E43DF54690078CE038
:2035E600F97A007B007C00854582854683E9F0EAA3F0EBA3F0ECA3F0740828F545E43DF57A
:203606004690078DE0F97A007B007C00854582854683E9F0EAA3F0EBA3F0ECA3F0740C285B
:20362600F8E43DFD90078EE0F97A007B007C0088828D83E9F0EAA3F0EBA3F0ECA3F09007FB
:2036460083C006C005122229D005D006904C8EE4932EF545854582C006122062AD82D0065A
:20366600D007900A31EDF0EDD0056003023B0CEE75F003A42483FB740935F0FC8B828C8301
:20368600A3E545F0C007C006C0051220FD900783122229D005D0069009A97483F07407A37D
:2036A600F09009ABE4F07402A3F09009ADEEF0900783C006C005122120E582D005D006D0F5
:2036C60007602CC007C006C0057483C0E07407C0E0E4C0E0740BC0E07451C0E07480C0E0B1
:2036E6001241F8E58124FAF581D005D006D007C007C006C0051222A9AC82D005D006D0071E
:20370600900A31ECF0EC6003023B0C900785E0FC7B00900786E0FAE42CFCEA3BFB900A3004
:20372600E0FA0A900C7DECF0EBA3F0900C7FE545F0900C80EAF0900C8174AAF0900C827444
:2037460083F07407A3F0758206123E44900C34E4F0A3F07B007C00900785E0FA8A457546A3
:2037660000900786E0FAE42545F545EA3546F5468B018C02C003C004A845AC46C3E998EA76
:203786009CD004D0035036EB2483F582EC3407F583E0F97A00C004C003C001C00274DFC042
:2037A600E0744DC0E07480C0E01241F8E58124FBF581D003D0040BBB009D0C809A74E7C09D
:2037C600E0744DC0E07480C0E01241F8158115811581900788E0FCFA7B00C004C002C00348
:2037E600741EC0E07451C0E07480C0E01241F8E58124FBF581900787E0FB7A00C003C0025A
:203806007437C0E07451C0E07480C0E01241F8E58124FBF581D0048C821220CE900785E03A
:20382600FC7B00900786E0FAE42CFCEA3BFB8C4C8B4D79007A00C3E9954CEA954D5020E993
:203846002434F8EA340AFCE92483F582EA3407F583E0FB88828C83F009B900DA0A80D790D9
:203866000783E0FA900A32F0E4A3F0900A30E0F54E854E49900A32E0F545A3E0F546C3E556
:2038860045954CE546954D4003023B08E5452434F545E546340AF546900C36E545F0E546F0
:2038A600A3F0854582854683A3E0F8B80402801AB80502804FB82103023A22B82403023A1F
:2038C6006BB82503023A93023ABB88017A00C001C002744CC0E07451C0E07480C0E012419F
:2038E600F8E58124FBF581A945AA46900C34E9F0EAA3F0900A2AE9F0EAA3F085498212321D
:20390600B1023ADF88017A00C001C0027468C0E07451C0E07480C0E01241F8E58124FBF515
:2039260081854582854683122229900C34E0F9A3E0FA89828A83A3A3A3A3A3E0FABA030203
:203946008003023ADFA945AA46740229F54AE43AF54B854A82854B83E0FA20E703023ADF06
:203966007900E975F008A424B6FA740935F0FC8A828C83E0600609B9080040E689037C0003
:20398600C001C003C0047483C0E07451C0E07480C0E01241F8E58124FBF581D001E975F0E4
:2039A60008A424B6F54F740935F0F5507403254FFAE43550FC854A82854B83E0FB8A828CEF
:2039C60083F0854F828550837401F004254FF54AE43550F54B900C34E0FAA3E0FC8A828C3A
:2039E60083A3A3E0854A82854B83F0854F82855083A3E54EF07C00C001C003C00474A5C073
:203A0600E07451C0E07480C0E01241F8E58124FBF581D0018982123123023ADF88037C001D
:203A2600C003C00474CCC0E07451C0E07480C0E01241F8E58124FBF581900C34E0FBA3E0AC
:203A4600FC900C34E0F5F0A3E045F07003023ADFA945AA46900A2CE9F0EAA3F08B828C8373
:203A6600123367807488037C00C003C00474E2C0E07451C0E07480C0E01241F8E58124FB53
:203A8600F581854582854683122229804C88037C00C003C004740AC0E07452C0E07480C021
:203AA600E01241F8E58124FBF58185458285468312222980247C00C000C0047434C0E07483
:203AC60052C0E07480C0E01241F8E58124FBF581854582854683122229900C36E0FBA3E0ED
:203AE600FC8B828C83E0FB7C00900A32E0F9A3E0FAEB29F9EC3AFA900A32E9F0EAA3F002DE
:203B0600387A75820022900A31E0FCFA7B00C007C006C005C004C002C0037456C0E07452ED
:203B2600C0E07480C0E01241F8E58124FBF581D004D0058D030B900C7DE4F0A3F0900C7F26
:203B4600EBF0900C80ECF0900C8174EEF0900C82E4F0A3F0758203C005123E44E543248376
:203B6600F582E5443409F5837402F0758201121866D005D006D007054774F6254740030213
:203B86003466900A31E0F58222900C38E4F010D803023D1CE5DB30E363900983E06008E5D4
:203BA600E430E003023C597582001217E69009837401F0E4C0E0C0E07464C0E07452C0E0E8
:203BC6007480C0E01241F8E58124FBF581900C7DE4F0A3F0900C7F04F0900C80F0900C814D
:203BE600F0900C82E4F0A3F0758201123E44758200123446E582900C38F08057900983E03D
:203C0600FFBF0100404D7582001223757582001217E6E4C0E0C0E07485C0E07452C0E07414
:203C260080C0E01241F8E58124FBF581900C7DE4F0A3F0900C7F04F0900C80F0900C81F070
:203C4600900C82E4F0A3F0758202123E44900C387416F0E5DB30E764900986E06008E5E592
:203C660030E003023D1C7582011217E69009867401F0C0E0E4C0E07464C0E07452C0E074CF
:203C860080C0E01241F8E58124FBF581900C7DE4F0A3F0900C7F7402F0900C80F0900C818E
:203CA600F0900C82E4F0A3F0758201123E44758201123446E582900C38F0805A900986E075
:203CC600FFBF010040507582011223757582011217E67401C0E0E4C0E07485C0E07452C02E
:203CE600E07480C0E01241F8E58124FBF581900C7DE4F0A3F0900C7F7402F0900C80F09067
:1D3D06000C81F0900C82E4F0A3F0758202123E44900C387416F0900C38E0F5822276
:204C7400800600010000120080060002000012008106000400000900000502000000000052
:204C940080060203090402040009000000000000210A000000000000810600220000FF0086
:204CB400686F73744374726C5472616E736665720A0052656D61696E696E672062797465D0
:204CD4007320746F20726561642025640A0052656365697665642025692062797465730AB5
:204CF4000052656D61696E696E6720627974657320746F20777269746520256900534554D7
:204D14005F504F5254202025303258202025303258200053656E64696E672025692062790C
:204D34007465730A0066696C6C54784275666665722025692062797465730A0066696C6C96
:204D5400547842756666657220646F6E650A0067657444657669636544657363726970747B
:204D74006F720A004465766963652064657363726970746F72207265717565737420736564
:204D94006E74207375636365737366756C6C790A005265636569766564207061636B65740F
:204DB40020697320736D616C6C6572207468616E2065787065637465640A005365744164BB
:204DD40064726573733A2025690A0030782530325820000A00202020200055736167652066
:204DF4007061676520004C454473004B6579626F6172642F4B657970616400427574746FCE
:204E14006E0067656E65726963206465736B746F7020636F6E74726F6C730076656E646F69
:204E34007220646566696E65642030782530346C7800756E6B6E6F776E2030782530326CFD
:204E5400780055736167652000556E6B6E6F776E00506F696E746572004D6F757365005285
:204E740065736572766564004A6F79737469636B0047616D65706164004B6579626F617264
:204E940064004B6579706164004D756C74692D4178697320636F6E74726F6C6C65720054B7
:204EB40061626C65742073797374656D20636F6E74726F6C7300580059005A0057686565E9
:204ED4006C004C6F676963616C206D696E20256C750A004C6F676963616C206D617820259D
:204EF4006C750A00506879736963616C206D696E20256C750A00506879736963616C206D18
:204F1400617820256C750A00436F6C6C656374696F6E20737461727420256C750A00436F38
:204F34006C6C656374696F6E20656E6420256C750A00556E69742030782530326C780A009F
:204F5400496E7075742030782530326C780A004F75747075742030782530326C780A0046DC
:204F74006561747572652030782530326C780A005265706F72742073697A6520256C750AD3
:204F9400005265706F727420494420256C750A005265706F727420636F756E7420256C75B9
:204FB4000A00556E6B6E6F776E20484944207265706F7274206964656E7469666965723AB5
:204FD40020307825303278202825692062797465732920646174613A2030782530326C7889
:204FF4000A0052657175657374696E67207265706F72742066726F6D20696E7465726661D3
:2050140063652025690A00496E746572666163652025640A002020436C6173732025640ACF
:2050340000202053756220436C6173732025640A002020496E746572666163652050726F07
:20505400746F636F6C2025640A0048494420617420496E746572666163652025640A00201A
:20507400205553422025642E256425640A002020436F756E74727920636F64652030782543
:205094003032580A0020205479706558203078253032580A004661696C656420746F206580
:2050B4006E61626C6520726F6F742068756220706F72742025690A00726F6F7420687562D7
:2050D40020706F727420256920656E61626C65640A0044657669636520636C617373202569
:2050F400690A004D6178207061636B65742073697A652025690A00446576696365205374A1
:2051140072696E673A2025730A00436F6E66696775726174696F6E2076616C75653A2025BB
:20513400640A00496E7465726661636520636F756E743A2025640A00496E746572666163FA
:20515400652064657363726970746F7220666F756E640A00456E64706F696E742064657394
:2051740063726970746F7220666F756E640A00436F6E6E656374656420646576696365208F
:20519400617420706F736974696F6E3A2025690A00476F7420656E64706F696E7420666FFF
:2051B400722074686520484944646576696365203078253032780A0048494420646573633E
:2051D400726970746F7220666F756E640A00436C617373207370656369666963206865612B
:2051F4006465722064657363726970746F7220666F756E640A00436C6173732073706563FA
:205214006966696320656E64706F696E742064657363726970746F7220666F756E640A00B9
:20523400556E65787065637465642064657363726970746F7220747970653A2025303258CB
:205254000A004572726F72203D20253032580A0044657669636520617420726F6F7420680F
:20527400756220256920636F6E6E65637465640A0044657669636520617420726F6F74206F
:1552940068756220256920646973636F6E6E65637465640A00FB
:0600B8007508007509F453
:203D2300AF82AE83ADF0FC900C79EFF0EEA3F0EDA3F0ECA3F043C60143C40843C50C43CED3
:203D430010C29FD29EC29DD29C438780900C79E0FCA3E0FDA3E0FEA3E0FF900C98ECF0EDF7
:203D6300A3F0EEA3F0EFA3F0908D8075F05BE412409BAC82AD830CBC00010DEDC313CC13A6
:203D8300CC740F55894420F58943C9A0C3E49CFC8C8DD28ED2992210980122900CDFE024D6
:203DA30039F582E4340CF583E599F0900CDFE0FF2439F582E4340CF583E0FEBE0A0280084C
:203DC300BF40005003023E3B7E00900CDFE0FDC3EE9D502EEE2439F582E4340CF583E0FD36
:203DE3007C00C006C005C00474A9C0E07452C0E07480C0E01241F8E58124FBF581D0060E14
:203E030080C874B1C0E07452C0E07480C0E01241F8158115811581900C39E0FEBE6B11900E
:203E23000C3AE0FEBE6209850882850983120041900CDFE4F0023D9A900CDFEF04F0023DFA
:203E43009AE582900C84F09000FE121727900C7DE0FEA3E0FF8E048F058C828D83C007C02C
:203E630006121727D006D0078F057C008D828C83C007C006121727900C84E0FD7C008D82A9
:203E83008C83121727900C7FE0FD7C008D828C83121727900C80E0FD7C008D828C83121722
:203EA30027900C81E0FD7C008D828C8312172790000012172790000012172790000012177B
:203EC30027900000121727D006D007900C82E0FCA3E0FD7A007B00C3EA9EEB9F5032EA2C4F
:203EE300F582EB3DF583E0F8790088828983C007C006C005C004C003C002121727D002D0B4
:203F030003D004D005D006D0070ABA00CA0B80C790000A021727E582900C90F09000FE1268
:203F23001727900C85E0FEA3E0FF8E048F058C828D83C007C006121727D006D0078F057CE1
:203F4300008D828C83C007C006121727900C90E0FD7C008D828C83121727900C87E0FD7CF4
:203F6300008D828C83121727900C88E0FD7C008D828C83121727900C89E0FD7C008D828CCC
:203F830083121727900C8CE0FD7C008D828C83121727900C8DE0FD7C008D828C831217276C
:203FA300900C8EE0FD7C008D828C83121727900C8FE0FD7C008D828C83121727D006D0076E
:203FC300900C8AE0FCA3E0FD7A007B00C3EA9EEB9F5032EA2CF582EB3DF583E0F87900880A
:203FE300828983C007C006C005C004C003C002121727D002D003D004D005D006D0070ABA86
:0B40030000CA0B80C790000A021727BC
:0A52A90030782530325820000A004A
:0152BE0000EF
:20400E00AF83E582900C93F0EFA3F0900C95E4F0A3F0900C91E0FEA3E0FF7D10900C93E097
:20402E00FBA3E0FC900C97235401F0EB2BFBEC33FC900C93EBF0ECA3F0900C95E0FBA3E019
:20404E00FCEB2BFBEC33FC900C95EBF0ECA3F0900C97E06008900C95E043E001F0900C95CE
:20406E00E0FBA3E0FCC3EB9EEC9F4013900C95EBC39EF0EC9FA3F0900C93E043E001F0DD23
:0D408E009B900C93E0FEA3E08E82F5832250
:20409B00AF82AE83ADF0FC900C9CEFF0EEA3F0EDA3F0ECA3F0900CA0E4F0A3F0A3F0A3F0AA
:2040BB00900C98E0FCA3E0FDA3E0FEA3E0FF7B20C003900C9CE0F8A3E0F9A3E0FAA3E0FB6D
:2040DB00900CA4235401F0E828F8E933F9EA33FAEB33FB900C9CE8F0E9A3F0EAA3F0EBA339
:2040FB00F0900CA0E0F8A3E0F9A3E0FAA3E0FBE828F8E933F9EA33FAEB33FB900CA0E8F0C9
:20411B00E9A3F0EAA3F0EBA3F0D003900CA4E06008900CA0E043E001F0900CA0E0F515A3B9
:20413B00E0F516A3E0F517A3E0F518C3E5159CE5169DE5179EE5189F401F900CA0E515C3DB
:20415B009CF0E5169DA3F0E5179EA3F0E5189FA3F0900C9CE043E001F01BEB60030240CB8F
:14417B00900C9CE0FCA3E0FDA3E0FEA3E08C828D838EF022DA
:06007200E478FFF6D8FD62
:200050007901E94400601B7A019052BE78DF75A00CE493F2A308B8000205A0D9F4DAF2755A
:02007000A0FFEF
:1B418F0020F71130F6138883A88220F509F6A8837583002280FEF280F5F0222F
:200078007800E84400600A790075A006E4F309D8FC78DFE84406600C7907900600E4F0A390
:04009800D8FCD9FABD
:02004100E47366
:2041AA00C0148581147E008E83121727D01422AFF0AE83E582900CA7F0EEA3F0EFA3F09025
:2041CA000CA7E0FDA3E0FEA3E0FF900CA6E0FC900CBBE4F0A3F0A3F0900CBEEDF0EEA3F01B
:2041EA00EFA3F0900CC1ECF09041AA0242FEC014E581F51424FBFF900CBBE4F0A3F0A3F08B
:20420A00E51424FBF8900CBEE6F008E6A3F008E6A3F0900CC1EFF09041AA1242FED0142243
:20422A00E582900CB7F0E0FF900CADE0C0E0A3E0C0E0A3E0C0E0124245800D900CABE0C0CF
:20424A00E0A3E0C0E08F8222158115811581900CB5E02401F0A3E03400F022E582900CB892
:20426A00F0E02430FF24C6500D74072FFF900CAAE060034307208F8202422AE582900CB9F3
:20428A00F0E0FFC4540FF582C007124265D00753070F8F82024265E582900CBAF0900CB034
:2042AA00E0FCA3E0FDA3E0FEA3E0FF900CB4E0FB900CBAE0FA79208B00E828F515EF235496
:2042CA00014515FBEC2CFCED33FDEE33FEEF33FFC3EB9A4007EBC39AFB43040119E970D7AA
:2042EA00900CB0ECF0EDA3F0EEA3F0EFA3F0900CB4EBF022AF83E582900CC2F0EFA3F090C3
:20430A000CC2E0FEA3E0FF900CABEEF0EFA3F0900CBBE0FDA3E0FEA3E0FF900CADEDF0EE73
:20432A00A3F0EFA3F0900CB5E4F0A3F0900CBEE0FDA3E0FEA3E0FF8D828E838FF0124C442B
:20434A00FC900CBE74012DF0E43EA3F0EFA3F0EC7003024C00BC25028003024BF8900CC47C
:20436A00E4F0900CC5F0900CC6F0900CC7F0900CC8F0900CC9F0900CCAF0900CCBF0900C77
:20438A00CDF0900CCEF0A3F0900CD014F0A3F0900CBEE0FDA3E0FEA3E0FF8D828E838FF08D
:2043AA00124C44FBA3AD82AE83900CBEEDF0EEA3F0EFA3F0900CD4EBF0BB25088B82124285
:2043CA002A024336BB30005003024497EB24C65003024497900CD0E0F50AA3E0F50B74FFCD
:2043EA00B50A63B50B60C005C006C007900CCEE0FAA3E0FF900CDDEAF0EFA3F090000AC02A
:20440A0005C003124C24AE82AF83D003D0058B027D00EA2EFEED3FFFEE24D0FEEF34FFFFF2
:20442A00900CCEEEF0EFA3F0D007D006D005900CCEE0F5F0A3E045F060030243A4900CC592
:20444A007401F00243A4C005C006C007900CDDE50AF0E50BA3F090000AC006C005C00312DD
:20446A004C24AA82AF83D003D005D0067E00EB2AFAEE3FFFEA24D0FAEF34FFFF900CD0EADE
:20448A00F0EFA3F0D007D006D0050243A4900CD4E0FBBB2E2FC005C006C007900CD0E0FA3A
:2044AA00A3E0FFBAFF05BFFF028009D007D006D0050243A4D007D006D005900CD0E4F0A399
:2044CA00F00243A4BB61004014EB2485400F900CD474DF5BF0900CAA7401F08005900CAA22
:2044EA00E4F0900CD4E0FBBB20028075BB2B028067BB2D028059BB4202806FBB4302807C45
:20450A00BB440302478EBB46030247B4BB48030243A4BB490302478EBB4A030243A4BB4CF2
:20452A00028050BB4F0302479CBB50030246FCBB53028077BB54030243A4BB55030247A459
:20454A00BB58030247ACBB5A030243A40247BC900CC47401F00243A4900CC67401F0024386
:20456A00A4900CC77401F00243A4900CC97401F00243A4900CCA7401F00243A4900CC9E030
:20458A00600E900CC1E014F9F0900CD4E7F0800F900CC1E024FEFFF08F01900CD4E7F090DE
:2045AA000CD4E0F58212422A0247CB900CC1E024FDFFF08F018705098706098707191990D0
:2045CA000CB0EDF0EEA3F0EFA3F08D828E838FF0124C0C85820A85830B900CD0E0FAA3E03F
:2045EA00FDBAFF0DBDFF0A900CD0E50AF0E50BA3F0900CC4E0704B900CCEE0FAA3E0FDC3D8
:20460A00E50A9AE50B9D503A900CCEEAC3950AF0ED950BA3F0900CCEE0FAA3E0FD8A068D49
:20462A00071ABAFF011DEE4F6010758220C005C00212422AD002D00580E3900CCEEAF0ED74
:20464A00A3F0900CD0E0F50DA3E0F50E900CB0E0FAA3E0FDA3E0FF8A828D838FF0124C4484
:20466A00F50C603CC3E4950D7480850EF063F08095F0502C150D74FFB50D02150E850C8270
:20468A0012422A900CB0E0FAA3E0FDA3E0FF0ABA00010D900CB0EAF0EDA3F0EFA3F080AC44
:2046AA00900CC4E070030247CB900CCEE0FEA3E0FFC3E50A9EE50B9F40030247CB900CCEBF
:2046CA00EEC3950AF0EF950BA3F0900CCEE0FEA3E0FF8E028F051EBEFF011FEA4D700302D9
:2046EA0047C3758220C007C00612422AD006D00780E0900CC1E024FDFDF08D01870F098778
:20470A00100987111919900CB0E50FF0E510A3F0E511A3F0900CB2E0FDBD80004008900C1F
:20472A00D47443F08020BD60004008900CD47450F08013BD40004008900CD47449F0800650
:20474A00900CD47458F0900CD4E0FDF582C00512422A75823A12422A75823012422A7582D1
:20476A007812422AD005BD4902800EBD50028009900CB1E0F582124285900CB0E0F5821204
:20478A004285803D900CC87401F0900CCD740AF0802F900CCD7408F08027900CCD740AF0E9
:2047AA00801F900CCD7410F08017900CCB7401F0800F8B8212422A8008900CCEEEF0EFA394
:2047CA00F0900CCBE06071900CC1E024FCFFF08F01870309870509870609870719191990C4
:2047EA000CB0EBF0EDA3F0EEA3F0EFA3F0900CB074B3F07452A3F07480A3F0900CB0E0F531
:20480A000FA3E0F510A3E0F5117401250FFAE43510FBAF11900CB0EAF0EBA3F0EFA3F0853C
:20482A000F828510838511F0124C44FF70030243368F8212422A80C3900CCDE070030243DD
:20484A0036900CC9E06047900CC1E014F9F087077E007D007B00900CB0EFF0EEA3F0EDA3B2
:20486A00F0EBA3F0900CC8E0600302490E900CB0E0FBA3E0A3E0A3E07D007E007F00900CFA
:20488A00B0EBF0EDA3F0EEA3F0EFA3F08076900CCAE06028900CC1E024FCFFF08F018703D6
:2048AA00098705098706098707191919900CB0EBF0EDA3F0EEA3F0EFA3F08048900CC1E032
:2048CA0024FEFFF08F01870609870719EF3395E0FDFB900CB0EEF0EFA3F0EDA3F0EBA3F0B7
:2048EA00900CC8E0701E900CB0E0FBA3E0FDA3E0A3E07E007F00900CB0EBF0EDA3F0EEA3FA
:20490A00F0EFA3F0900CC8E06041900CB0E0FBA3E0FDA3E0FEA3E0FF30E72B900CB0E0FB23
:20492A00A3E0FDA3E0FEA3E0FFC3E49BFBE49DFDE49EFEE49FFF900CB0EBF0EDA3F0EEA3F5
:20494A00F0EFA3F08005900CC8E4F0900CCC7401F0900CCDE0F50D7512DA75130CE4F50A2E
:20496A00F50B900CB4E4F0850D821242A1900CCCE07033900CB4E0C454F0F50F900CB4E0A9
:20498A00C4540F450FF50F851282851383E0FFE50F4207851282851383EFF0151274FFB5DC
:2049AA0012021513800C900CB4E0FF851282851383F0050AE4B50A02050B900CCCE0B40111
:2049CA0000E433F0900CB0E0FAA3E0FBA3E0FEA3E0FFEA4B4E4F708A900CDBE512F0E513FD
:2049EA00A3F0900CD2E50AF0E50BA3F0900CCEE0F5F0A3E045F07009900CCE7401F0E4A394
:204A0A00F0900CC5E0FFE07047900CC4E07041850A12850B13900CCEE0FAA3E0FBC007AF58
:204A2A00120F8F067F00C3EE9AEF9BD0075019758220C007C003C00212422AD002D003D0CC
:204A4A00071ABAFF011B80D5900CCEEAF0EBA3F0900CC8E0602075822DC00712422AD0073B
:204A6A00900CCEE024FFFDA3E034FFFE900CCEEDF0EEA3F08056900CD2E0F5F0A3E045F085
:204A8A00604A900CC6E0602075822BC00712422AD007900CCEE024FFFDA3E034FFFE900CA8
:204AAA00CEEDF0EEA3F08024900CC7E0601E758220C00712422AD007900CCEE024FFFDA31B
:204ACA00E034FFFE900CCEEDF0EEA3F0900CC4E07048900CD2E0F512A3E0F513900CCEE0D1
:204AEA00FAA3E0FBC0078A068B071ABAFF011BC3E5129EE5139FD0075053EF60067D307E73
:204B0A000080047D207E008D82C007C003C00212422AD002D003D00780CA900CCEE0FEA362
:204B2A00E0FF900CD2E0F512A3E0F513C3E5129EE5139F500F900CCEEEC39512F0EF951315
:204B4A00A3F08011900CCEE4F0A3F08008900CCEEAF0EBA3F0900CDBE0FEA3E0FF900CD2C7
:204B6A00E0F512A3E0F513AA12AD13151274FFB512021513EA4D6045900CCCE0B40100E4F5
:204B8A0033F0900CCCE070140EBE00010F8E828F83E0C4540FFD900CB4F0800E8E828F832A
:204BAA00E0FD53050F900CB4EDF0900CB4E0F582C007C006124265D006D00780AA900CC456
:204BCA00E07003024336900CCEE0FEA3E0FF8E038F051EBEFF011FEB4D70030243367582F6
:204BEA0020C007C00612422AD006D00780E08C8212422A024336900CB5E0FEA3E08E82F5B5
:024C0A00832203
:0B52B3003C4E4F20464C4F41543E0043
:184C0C00AA82AB83124C446003A380F8C3E5829AF582E5839BF583223E
:204C2400AA83AB828BF0900CDDE0A4F8A9F08AF0E0A429F98BF0A3E0A429F583888222225C
:0D004300758150124C60E582600302003EA2
:1C4C440020F71430F6148883A88220F507E6A88375830022E280F7E49322E0227F
:044C60007582002237
:00000001FF
